:100000000C9446000C9465000C9465000C946500FB
:100010000C9465000C94C2010C9467000C9465006C
:100020000C9465000C9465000C9465000C946500BC
:100030000C9465000C9465000C9465000C946500AC
:100040000C94EE1C0C9465000C9465000C946500F7
:100050000C9465000C9465000C9465000C9465008C
:100060000C9465000C9465000C9465000C9465007C
:100070000C9465000C9465000C9465000C9465006C
:100080000C9465000C9465000C94650011241FBE4F
:10009000CFEFD0E1DEBFCDBF12E0A0E0B1E0E0E8FD
:1000A000FBE300E00BBF02C007900D92A632B10740
:1000B000D9F717E0A6E2B2E001C01D92A33CB10758
:1000C000E1F70E946D040C94BE1D0C9400001F9279
:1000D0000F920FB60F9211242F933F938F939F93FC
:1000E0008091280290912902892BB9F480911B01FB
:1000F00090911C012091360230913702821B930BA4
:100100001816190654F481E090E090932902809328
:10011000280280E49CE90197F1F79F918F913F912C
:100120002F910F900FBE0F901F901895982F84EA73
:10013000809374008091740087FFFCCF80917100E0
:10014000887F883029F080917100887F803191F715
:1001500088E98093730084E8809374008091740030
:1001600087FFFCCF80917100887F8831B9F7909329
:10017000730084E8809374008091740087FFFCCF43
:1001800080917100887F8832B9F76093730084E8AA
:10019000809374008091740087FFFCCF8091710080
:1001A000887F8832B9F784E9809374000895982F86
:1001B00084EA809374008091740087FFFCCF809163
:1001C0007100887F883029F080917100887F8031AC
:1001D00091F788E98093730084E88093740080919C
:1001E000740087FFFCCF80917100887F8831B9F758
:1001F0009093730084E8809374008091740087FF6B
:10020000FCCF80917100887F8832B9F784E98093B0
:100210007400089583E082BB80B58B7F80BD10920F
:10022000710080E28093700084E4809374000895EC
:1002300084EA809374008091740087FFFCCF89E981
:100240008093730084E8809374008091740087FF2A
:10025000FCCF84EC809374008091740087FFFCCF06
:100260009091730084E8809374008091740087FFFC
:10027000FCCF80917300392F20E090E0282B392BA0
:1002800084E980937400232F330F330B213231051F
:100290002CF487B78F7B87BFC901089587B7806427
:1002A00087BFC9010895369A349BFECF24B145B16A
:1002B000942F80E030E0282B392BC90108958091DC
:1002C00041049091420460E070E048E352E00E94F3
:1002D000CC118FEF8ABB0E9453018756934038F4AC
:1002E0008091340290913502892B09F043C08091AE
:1002F000340290913502089714F140E050E020E07C
:1003000030E0F901EC5FFE4F8081480F511D2F5FF7
:100310003F4F29303105A9F7842F8BBB28EC30E003
:1003200040E951E0CA010197F1F721503040D1F77F
:1003300080914104909142040E94A41108958091FB
:10034000340290913502892BC1F020913402309112
:10035000350212161306A4F440E050E0F901EC5FF8
:10036000FE4F8081480F511D215030401216130658
:10037000ACF3D2CF80910501D0CF80910401CDCFD5
:1003800080E0CBCF1F920F920FB60F920BB60F9259
:1003900011242F933F934F935F936F937F938F938A
:1003A0009F93AF93BF93EF93FF9380912802909117
:1003B0002902892B99F0FF91EF91BF91AF919F9105
:1003C0008F917F916F915F914F913F912F910F90FE
:1003D0000BBE0F900FBE0F901F90189580913F0499
:1003E0009091400460E070E048E352E00E94CC113C
:1003F00080911B0190911C01839734F083E190E080
:1004000090931C0180931B0180911B0190911C0112
:10041000019690931C0180931B0180913F04909161
:1004200040040E94A41180E49CE90197F1F7C3CF36
:10043000AF92BF92CF92DF92EF92FF920F931F93F2
:10044000DF93CF93CDB7DEB729970FB6F894DEBF11
:100450000FBECDBF5E010894A11CB11C22E0C22ECC
:10046000D12CCC0EDD1E90E4E92E9FE1F92E809177
:10047000280290912902892B09F05CC08091260204
:1004800090912702892B09F401C120913602309105
:100490003702C9016AE070E00E946E1D79876887A3
:1004A000C9016AE070E00E946E1D9C019F838E83EB
:1004B00080911B0190911C016AE070E00E946E1D0A
:1004C0007D836C8380911B0190911C016AE070E038
:1004D0000E946E1D9B838A8340E050E0B901635FF8
:1004E0007E4FD60120E030E02230310509F4C0C053
:1004F000ED91FC911197E35FFE4F808185BBF9017F
:10050000E050FF4F808180936500C7010197F1F7AC
:100510002F5F3F4F12962430310531F74F5F5F4F09
:1005200044365105F1F68091280290912902892BD9
:1005300009F4A4CF809132029091330261E041E04E
:1005400095010E9425188091390290913A0260E04D
:1005500070E0A5010E94BC13FC0180819181909301
:100560003702809336028091390290913A0260E01E
:1005700070E0A5010E94BC13FC01808191819093E1
:100580001C0180931B01809141049091420460E022
:1005900070E0A5010E94CC1180911B0190911C017B
:1005A0002091360230913702821B930B90933502D3
:1005B0008093340280914104909142040E94A411DE
:1005C00080913402909135028F5F9F4F09F478C07B
:1005D0000E945F012091360230913702C9016AE022
:1005E00070E00E946E1D79876887C9016AE070E03B
:1005F0000E946E1D9C019F838E8380911B019091B0
:100600001C016AE070E00E946E1D7D836C83809106
:100610001B0190911C016AE070E00E946E1D9B839B
:100620008A8340E050E0B901635F7E4FD60120E04D
:1006300030E02230310519F1ED91FC911197E35F23
:10064000FE4F808185BBF901E050FF4F8081809390
:100650006500C7010197F1F72F5F3F4F12962430D5
:10066000310539F74F5F5F4F44365105F9F6FFCE3C
:10067000FB01808190E080589F4F85BB40CFFB01FC
:10068000808190E080589F4F85BBDDCF8091300204
:100690009091310260E070E0A5010E945117FC01C9
:1006A0008081918190933702809336028091260257
:1006B0009091270201969093270280932602E5CE1F
:1006C00080913D0490913E0461E041E095010E94DB
:1006D000251880912E0290912F0261E042E820E0DF
:1006E00030E085010E94BC1880912E0290912F026B
:1006F00062E041E095010E942518B9CEAF92BF9209
:10070000DF92EF92FF920F931F93CF93DF93C0E995
:10071000D1E050E1D52E40E4E42E4CE9F42E34E152
:10072000A32EB12C80913D0490913E0461E042E8FB
:1007300020E030E008E312E00E94BC181092290289
:10074000109228020E945F0120E137E2CE0101975A
:10075000F1F721503040D1F720E030E0D8BAC7019E
:100760000197F1F718BAC7010197F1F72F5F3F4FD3
:100770002A30310599F728EE33E0CE010197F1F7E1
:1007800021503040D1F780913F049091400460E0C7
:1007900070E048E352E00E94CC11B0921C01A0929C
:1007A0001B0180913F04909140040E94A41180910C
:1007B0002E0290912F0261E041E028E332E00E9496
:1007C0002518B0CF0F931F93CF93DF93C0E9D1E0EB
:1007D000809132029091330261E042E820E030E003
:1007E00008E312E00E94BC18809136029091370213
:1007F00060E070E0A8010E94CC11809136029091D7
:1008000037020196909337028093360220E137E257
:10081000FE013197F1F721503040D1F70E94A41129
:100820008091390290913A0266E372E00E946D1362
:100830008091390290913A026BE171E00E946D1350
:10084000C7CFCF92DF92EF92FF920F931F93DF9368
:10085000CF930F92CDB7DEB70E940A0181E060E02E
:100860000E94960080E00E94D7007E010894E11C5F
:10087000F11C60E4C62E6CE9D62E80913B04909169
:100880003C0460E070E0A7010E94CC110E941801B6
:10089000909337028093360280913B0490913C0400
:1008A0000E94A411809130029091310266E372E0BF
:1008B0000E94291780912E0290912F0262E042E857
:1008C00020E030E087010E94BC18109227021092AD
:1008D0002602C6010197F1F7D0CF0F931F930E9414
:1008E000511BF89487E083BF81E087BF84E682BF15
:1008F00017B887E886B99FEF94BB80E187BB2FE0EC
:10090000209364009ABB8FEC82B98AE08ABF80E3AF
:1009100089BF8FB780688FBF20936500789481E08E
:1009200090E00E94330B90933C0480933B0481E061
:1009300090E00E94330B9093400480933F0481E049
:1009400090E00E94330B909342048093410480E036
:1009500090E00E94990790933102809330028AE2DE
:1009600092E062E070E00E94560A90933A0280930F
:10097000390208E312E080E0B8010E947A06909301
:1009800033028093320280E0B8010E947A0690938D
:100990003E0480933D0480E0B8010E947A06909363
:1009A0002F0280932E0281E294E060E070E04AEB37
:1009B00052E020E00E94991088E192E060E070E04F
:1009C0004AE353E021E00E94991082EE93E060E058
:1009D00070E04AEB53E022E00E9499108EE793E02A
:1009E00060E070E04AE354E023E00E9499100E9426
:1009F000D11A80E090E01F910F910895FA01808351
:100A00009293129212921292129212921292129245
:100A100012921292129212921292129212921292B6
:100A200012921292129212921292129212921292A6
:100A300012926293729312921292129212921292E4
:100A40001292129280E882933197CF01089508950F
:100A500008950895089508950895089508950895AE
:100A600080914404813009F00895809121058F3FE1
:100A7000D9F38F5F809321050895809144048130DC
:100A800009F00895F894809143048F3F19F08F5F27
:100A900080934304789408958CEF90E0089508952E
:100AA000FF920F931F93CF93DF93EC018B01F42EF2
:100AB0003981E32FF0E0EB5DFE4F2081422F50E0C3
:100AC000FA01E35EFE4F7081DC01A40FB51F16969C
:100AD0009C911697E92FF0E0EB5DFE4F8081E82FA7
:100AE000F0E0E35EFE4F6081220F220F220F280FFD
:100AF000862F8095892316968C93882321F4872F3F
:100B0000809538233983E22FF0E0EE0FFF1FEB557D
:100B1000F84F0190F081E02D128E118E138A128A07
:100B2000158B048B8F2D8095938D8923838F88233C
:100B300059F480911B05872B80931B05FA01E45E15
:100B4000FA4F8081682B6083822FDF91CF911F91B4
:100B50000F91FF900895CF93DF93EC01A0912205B0
:100B6000B091230553969C938E9352975E968C91E9
:100B70005E97482F50E05F963C915F97FA01E45EE4
:100B8000FA4F832F80959081892380838823A9F44D
:100B900090962C91922F909580911B05892380939C
:100BA0001B05FE01E40FF51F8681832B8683898157
:100BB000822B8983DF91CF91089590962C91F1CF6C
:100BC000CF93DF93EC01A0912205B09123055E96AF
:100BD0008C915E97FE01E80FF11D5F968C915F97F7
:100BE0008095968189238683882339F490969C91F9
:100BF000909790958981892389835B961C925B9756
:100C000053961C921E925297DF91CF910895FC014A
:100C10001182168217820895FC01D901009731F1E3
:100C20008081853021F081E08C9380E0089547FD3C
:100C300021C020E01C92F8944130F9F0413048F096
:100C4000423089F1433021F1789487E98C9380E038
:100C500008959381892F80958623861709F442C0D1
:100C600088E98C939381892F7894089586E98C93F1
:100C700080E008954F7721E0DDCF9381892F809523
:100C8000862311F1213019F5892B8383982F1FC0FA
:100C90009381692399F02130A1F4862F80958923CF
:100CA0008383982F0EC09381862F8923861791F016
:100CB00088E98C939381892F7894089588E98C939F
:100CC0009381892F7894089588E98C939381892F53
:100CD00078940895213079F7862F8095892383832E
:100CE000982FE9CF213009F0BECF892F862B83833F
:100CF000982FB9CF282FDB01809121058823D9F4C3
:100D0000F894E091A207F091A307309779F08181E0
:100D100092819093A3078093A20785E08083238329
:100D20001282118278941C92CF01089578948AE9F6
:100D30008C93CF0108958DE88C93E0E0F0E0F4CF40
:100D4000FC01DB01009761F08081853021F081E0BA
:100D50008C9380E00895F894838178941C92089590
:100D600086E98C9380E00895EF92FF920F931F9392
:100D7000CF93DF937C01FB01A0912205B091230565
:100D80005B968C915B9780625B968C935B975A968F
:100D90001C930E93599757967C936E935697408762
:100DA0002187B583A483E70189819A819183808318
:100DB00013821282F782E68289819A81009719F064
:100DC000EC017B836A83E701FA83E9835E96EC9109
:100DD0005E97F0E0E45EFA4F5F968C915F978095A6
:100DE000908189238083882341F490969C919095EB
:100DF00080911B05892380931B05DF91CF911F9163
:100E00000F91FF90EF90089510924A048EE494E0C1
:100E100090934C0480934B0410924E04049690934C
:100E2000500480934F0410925204049690935404FB
:100E3000809353040C971092580410925704909387
:100E4000A3078093A2070895CF93DF93EC01EA8173
:100E5000FB81A881B981309779F0B183A083109785
:100E600021F01396FC93EE931297EC81FD81178A83
:100E7000168ADF91CF910895EE81FF81B283A1831D
:100E8000109799F313961C921E921297EC81FD8194
:100E9000178A168ADF91CF9108951F93CF93DF931E
:100EA000EC01AC81BD815A961C921E9259975896BE
:100EB0006C9358975B968C915B978F7D5B968C9328
:100EC0005B978823E1F480911B0590969C91909705
:100ED000892B80931B055E96EC915E97F0E0E45EB3
:100EE000FA4F80815F969C91892B808311E0CE011F
:100EF0000E942407812FDF91CF911F91089510E068
:100F0000CE010E942407812FDF91CF911F91089578
:100F1000FC01009721F420E030E0C90108958081B0
:100F20008130C9F7F8942481358115821482789430
:100F3000F4CF9C01809121058823D9F4F894E091A5
:100F40001E05F0911F05309731F0848195819093B3
:100F50001F0580931E057894309749F081E08083C7
:100F60001382128235832483118216821782CF0165
:100F70000895E0E0F0E0CF010895FC01DB01009767
:100F8000C9F08081813011F081E00895F894818169
:100F900014968C931497868112968C93129787815E
:100FA00013968C931397848195818D939C93789459
:100FB00080E0089584E008952F923F924F925F92CF
:100FC0006F927F928F929F92AF92BF92CF92DF9259
:100FD000EF92FF920F931F93CF93DF932C015A014F
:100FE0006B01380149011701009709F492C04230A2
:100FF00051056105710508F480C002301105210515
:10100000310508F480C0F8946091F9047091FA04F5
:101010006115710539F0FB01828193819093FA0487
:101020008093F90478946115710509F478C0E201A0
:10103000A6019501215030404040504079F17301A4
:101040008201060D171DF80180E090E0A0E0B0E0FD
:10105000F983E883EF01EE0DFF1D0196A11DB11D7F
:1010600082179307A407B50798F38EEF9FEFAFEFB2
:10107000BFEFA80EB91ECA1EDB1EEA9CE001EB9C66
:10108000D00DFA9CD00D112482E090E0A0E0B0E0F9
:10109000A80EB91ECA1EDB1EC00FD11F19821882EE
:1010A000DB0111965C924E9213965C924E921297CF
:1010B000FB01A486B586C686D7861896AD92BD92EA
:1010C000CD92DC921B976482758286829782D101D1
:1010D0001C92CB01DF91CF911F910F91FF90EF9068
:1010E000DF90CF90BF90AF909F908F907F906F9048
:1010F0005F904F903F902F9008958FE6F701808387
:1011000060E070E0E6CF80E7D7018C9360E070E0AC
:10111000E0CF86E7D7018C9360E070E0DACF8EE60F
:10112000D1018C93D6CFCF93DF93FC01EB010097D5
:1011300029F1F89424853585468557852115310593
:1011400041055105A9F0A281B3818D919C91119720
:10115000938382832150304040405040248735871C
:101160004687578778941882CD01DF91CF910895F3
:10117000789481E78883A0E0B0E0F6CF84E78883A5
:10118000A0E0B0E0F1CFCF93DF93FC01EB0100973B
:1011900069F16115710531F1F8942485358546852D
:1011A000578580859185A285B385281739074A0719
:1011B0005B0728F0789482E7DF91CF9108958281D0
:1011C000938199838883738362832F5F3F4F4F4F4F
:1011D0005F4F2487358746875787789480E0DF9173
:1011E000CF91089583E7DF91CF91089584E7E4CF0D
:1011F000CF93DF93EC01FB010097A9F16115710515
:1012000071F1F89488819981918380838A819B818F
:10121000938382838C819D81AE81BF8184839583FA
:10122000A683B78388859985AA85BB8580879187A2
:10123000A287B3872C853D854E855F8524873587BA
:10124000468757877894821B930BA40BB50B808B32
:10125000918BA28BB38B80E0DF91CF91089585E7CE
:10126000DF91CF91089584E7F7CF8DE594E09093D7
:10127000FA048093F9041092600410925F041092B3
:101280005E0410925D041092690410926A04109238
:101290006B0410926C041092650410926604109214
:1012A0006704109268041092610410926204109214
:1012B0006304109264040895CF93DF93DC01EB0183
:1012C00080912105882359F4109779F08C9184300E
:1012D00081F081E0888380E0DF91CF91089582E002
:1012E000888380E0DF91CF91089584E0888380E057
:1012F000F3CFF89412962D913C9113972F3F31F034
:101300007894188280E0DF91CF910895E0912205D2
:10131000F0912305848D90E02070822B932B1396FF
:101320009C938E9312971596FC93EE931497789452
:10133000188281E0D1CFCF93DF93982FEB0180917A
:101340002105882309F042C09C3008F044C0F8947D
:10135000292F30E0D901AA0FBB1FAB55B84F8D9193
:101360009C911197892B19F581E090E011969C933F
:101370008E93E0911E05F0911F05309709F184814D
:10138000958190931F0580931E05789484E0808357
:10139000922F88278F6F9383828315821482118204
:1013A000168217821882CF01DF91CF910895789429
:1013B00088E28883E0E0F0E0CF01DF91CF910895EB
:1013C0001D921C92789484E08883EDCF8DE8888309
:1013D000E0E0F0E0E8CF8AE28883E0E0F0E0E3CF0D
:1013E000FC01DB0180912105882309F5309731F15B
:1013F0008081843011F081E00895F8949281838196
:1014000015968C93159714969C9314979F3F89F08B
:1014100013961C921397818112968C931297868152
:101420008C93878111968C93789480E0089586E060
:10143000089581E013968C931397EDCF84E008957F
:10144000FC01009721F420E030E0C901089580817B
:101450008230C9F7F894A481B5811C968D919C9136
:101460001D970097F9F01896ED91FC91199721912D
:1014700031911996FC93EE93189701971D969C93C2
:101480008E931C9714968D919C911597E817F907E8
:1014900059F412968D919C91139719969C938E9363
:1014A000189702C020E030E07894CFCF9C01809163
:1014B0002105882309F052C0F894E0911E05F091AF
:1014C0001F05309731F08481958190931F0580939B
:1014D0001E0578943097A9F1F894A0911905B09160
:1014E0001A05109781F18D919C91119790931A058F
:1014F00080931905789413963C932E931297CB0101
:10150000880F991F820F931F15969C938E931497A3
:1015100017963C932E93169719963C932E931897F3
:101520001B967C936E931A971D961C921E921C9785
:1015300082E0808313821282B583A4831182168293
:101540001782CF01089580911E0590911F05958304
:101550008483F0931F05E0931E057894E0E0F0E0AB
:10156000CF010895FC010097A1F08081823011F035
:1015700081E00895F8940480F581E02D82819381C3
:10158000978386839187808715861486789480E078
:10159000089584E00895CF93DF93FC01DB01009769
:1015A000A9F18081823021F081E0DF91CF9108950F
:1015B000F894818118968C931897868116968C934F
:1015C0001697878117968C931797C481D5812C85A0
:1015D0003D852115310591F411961C921E921396AA
:1015E0003C932E9312978A859B8515969C938E9398
:1015F0001497789480E0DF91CF910895E885F9857C
:101600008081918111969C938E93E9CF84E0DF9144
:10161000CF91089589E095E09093FC048093FB04BA
:101620000E9710920A051092090590931A0580935F
:1016300019050895FC01009719F08081833021F08D
:1016400020E030E0C9010895F8942281338121150A
:10165000310531F021503040338322832F5F3F4FDB
:101660007894C90108959C01809121058823D9F4BB
:10167000F894E0911E05F0911F05309731F08481B8
:10168000958190931F0580931E057894309749F0BB
:1016900083E0808333832283158214821182168231
:1016A0001782CF010895E0E0F0E0CF010895FC013A
:1016B000DB010097C9F08081833011F081E008954B
:1016C000F894818114968C931497868112968C934A
:1016D0001297878113968C931397828193818D93B0
:1016E0009C93789480E0089584E00895E82F8C30EE
:1016F000B9F08C50833F90F0EF3FA1F0F894F0E008
:10170000EE0FFF1FEB55F84F0190F081E02D309761
:1017100089F08EE381A380E0789408958AE20895A9
:101720008DE30895F894E0912205F091230581A1BD
:10173000789408958BE0F0CFEF92FF920F931F9370
:10174000CF93DF93E82FEB018D50823F08F1188291
:1017500019821A821B821C821D821E821F82F894AB
:10176000EF3FF1F0F0E0EE0FFF1FEB55F84F019067
:10177000F081E02D3097D1F0828580FD20C07894F3
:1017800082E8DF91CF911F910F91FF90EF90089524
:101790008AE2DF91CF911F910F91FF90EF90089512
:1017A000E0912205F0912305E48DDCCF78948BE065
:1017B000DF91CF911F910F91FF90EF900895E680F8
:1017C000F78000851185A481B58178948C91882358
:1017D00011F520E030E040E050E02F5F3F4F4F4FE9
:1017E0005F4FFD01E20FF31F80818823B1F328834F
:1017F00039834A835B83E21AF30A040B150BEC82EC
:10180000FD820E831F8380E0DF91CF911F910F91A6
:10181000FF90EF90089520E030E040E050E0E7CF07
:10182000F89420912405309125054091260550918A
:1018300027057894B901CA010895F89460932405A6
:101840007093250580932605909327057894089535
:10185000E82F8D50823FC0F0F894EF3FB9F0F0E0F0
:10186000EE0FFF1FEB55F84F0190F081E02D309700
:1018700041F0DB0182E201900D928150E1F7789412
:101880000895789489E208958AE20895E091220506
:10189000F0912305E48DE3CF9F92AF92BF92CF9258
:1018A000DF92EF92FF920F931F93CF93DF93982EC7
:1018B000F894C091F504D091F604209709F46DC016
:1018C0008E859F859093F6048093F50478947983B0
:1018D00068839C8E1B8E1A8E198EDB82CA82EE82E2
:1018E000FF82088719875D834C83BB86AA863D8764
:1018F0002C8719A2E92DE695E695E695EE8FF0E0A6
:10190000E35EFE4F808188A3E92DE770ED8FF0E064
:10191000E35EFE4F80818F8F1B8A1A8A1F8A1E8A80
:101920001D8A1C8ACE010E942F05CE010E94270528
:10193000F894E92DF0E0EE0FFF1FEB55F84FD1833F
:10194000C083E0915B04F0915C04FF87EE87198A05
:10195000188A309711F0D18BC08BD0935C04C09360
:101960005B0480911B0598A1892B80931B05EE8D4C
:10197000F0E0E45EFA4F80819F8D892B808378941C
:1019800080E0DF91CF911F910F91FF90EF90DF905A
:10199000CF90BF90AF909F900895789486E4F1CF58
:1019A000F8948091450490914604A0914704B09129
:1019B00048040196A11DB11D8093450490934604EF
:1019C000A0934704B093480478940E942E05E8CF72
:1019D000F89480912105882309F03FC08091430449
:1019E0008823D9F5E0911B05F0E0EB5DFE4F808187
:1019F000E82FF0E0E45EFA4FE081F0E0EB5DFE4FAF
:101A0000982F990F990F990F8081980F90934904FF
:101A100080915A04981709F1E92FF0E0EE0FFF1FAB
:101A2000EB55F84F808191819093180580931705AD
:101A30008091ED049091EE04A091EF04B091F00438
:101A40000196A11DB11D8093ED049093EE04A09327
:101A5000EF04B093F0040E94541C789408958C30E5
:101A6000A0F4F894E82FF0E0EE0FFF1FEB55F84FCD
:101A7000A081B181109759F059968D919C915A97F8
:101A8000892B41F4789480E508958AE2089578944A
:101A90008BE008955A961C921E9259975B968C91F2
:101AA0005B9783FF03C0789480E0089580911B05C5
:101AB00090969C919097892B80931B055E96EC9154
:101AC0005E97F0E0E45EFA4F80815F969C91892BEF
:101AD000808378940E94E80C80E008959C01009730
:101AE00021F1F894A0912205B09123055E96EC9126
:101AF0005E97F0E0E45EFA4F5F968C915F97809579
:101B0000908189238083882349F490969C919097B3
:101B1000909580911B05892380931B055A963C93D1
:101B20002E93599778940E94E80C08958F929F9273
:101B3000AF92BF92CF92DF92EF92FF920F931F93DB
:101B4000CF93DF93882E162F942E8823C9F01C3351
:101B500000F58BE3891590F093E0283E3907D8F023
:101B600083E5DF91CF911F910F91FF90EF90DF9070
:101B7000CF90BF90AF909F908F90089582E5F1CF66
:101B8000662329F7442329F72115310529F784E530
:101B9000E8CF81E5E6CFB90180E090E024E630E0CF
:101BA00040E050E00E944F1D6C507E4F8F4F9F4F82
:101BB00028EE33E040E050E00E94811D59016A01A7
:101BC000612F70E080E090E02CE330E040E050E0F6
:101BD0000E944F1D7B018C01E90CF11C011D111DA0
:101BE000682D70E080E090E020E13EE040E050E0D1
:101BF0000E944F1DE60EF71E081F191FC801B701EE
:101C000024E630E040E050E00E944F1DA60EB71ED3
:101C1000C81ED91E760100271127E7018FEF9FEF1D
:101C2000A0E0B0E0A822B922CA22DB22C5010E94AE
:101C30006E0DEF2851F080E090E80E946E0D80E07C
:101C400090E80E946E0D2197B1F780E08ACFDF9275
:101C5000EF92FF920F931F938091A407882341F482
:101C600088EC90E00E946E0D8091A4078823C1F358
:101C70006091F1047091F2048091F3049091F40466
:101C800024E630E040E050E00E94811DC901DA0105
:101C90007C018D0134E6D32E10C0A80197010E946B
:101CA000811D8D2D821B87FD44C08093F7040E9407
:101CB0002A0584E690E00E946E0DF8948091450418
:101CC00090914604A0914704B09148048093BF07C7
:101CD0009093C007A093C107B093C20760914504D9
:101CE00070914604809147049091480410924504F5
:101CF0001092460410924704109248047894E1141C
:101D0000F1040105110549F61092F7046091F10400
:101D10007091F2048091F3049091F40424E630E091
:101D200040E050E00E94811DC901DA017C018D0173
:101D3000BECF1092F704BBCF82E090E00E946E0D00
:101D4000F8941092450410924604109247041092A1
:101D50004804789484E690E00E946E0DF894809197
:101D6000450490914604A0914704B09148048093A3
:101D7000F1049093F204A093F304B093F40481E08F
:101D80008093A40778940895982F8C3009F43FC06D
:101D90008C50833F80F1F8949F3FD9F1E091220568
:101DA000F0912305E48DE91709F43DC0E92F20E007
:101DB000F0E0EE0FFF1FEB55F84FA081B1811097B7
:101DC00079F15E96EC915E97F0E0E45EFA4F5F96F3
:101DD0008C915F978095908189238083882369F017
:101DE0005B968C915B9788605B968C93789421309E
:101DF000E1F080E008958AE2089590969C91909792
:101E0000909580911B05892380931B05E9CF8BE575
:101E10000895E0912205F0912305E48D21E0C8CFDB
:101E200078948AE5089521E0C3CF0E94E80C80E011
:101E300008958C3098F4F894E82FF0E0EE0FFF1F2F
:101E4000EB55F84FA081B181109751F05B968C91C2
:101E50005B9783FD08C0789485E608958AE208952B
:101E6000789484E60895877F5B968C935B978823AC
:101E700031F459968D919C915A97892B19F0789449
:101E800080E0089580911B0590969C919097892BF6
:101E900080931B055E96EC915E97F0E0E45EFA4F4E
:101EA00080815F969C91892B808378940E94E80CB6
:101EB00080E008950F931F93CF93DF93E82F8091D5
:101EC0002105882309F08BC0EC3009F48EC08E2FD9
:101ED0008C50833F08F47DC0F894EF3F09F48BC029
:101EE0000E2F10E0000F111FF801EB55F84FC081C5
:101EF000D181209709F485C08E8D482F50E02F8D19
:101F00002095FA01E45EFA4F808182238083882342
:101F100039F498A1909580911B05892380931B0526
:101F2000AA89BB89109781F0FD01E40FF51F868116
:101F300082238683882341F498A1909511968C91F1
:101F40001197892311968C938E899F89009711F0A0
:101F50000E9424071A8E198E1B8E809143048F3F96
:101F600019F08F5F809343047894F894882319F0D4
:101F7000815080934304CE010E9428058091F8048B
:101F800081508093F8040B55184FF801118210828C
:101F9000A889B9891097C1F18E859F851F969C935A
:101FA0008E931E97EE85FF85B18BA08B8091F504F3
:101FB0009091F6049F878E87D093F604C093F50422
:101FC00078940E94E80C80E0DF91CF911F910F91EF
:101FD00008958AE2DF91CF911F910F9108958FE3C9
:101FE000DF91CF911F910F9108958DE3DF91CF91F4
:101FF0001F910F910895E0912205F0912305E48D42
:102000006FCF78948CE3E6CFEE85FF85118A108A36
:10201000F0935C04E0935B04C9CF2F923F924F9200
:102020005F926F927F928F929F92AF92BF92CF9268
:10203000DF92EF92FF920F931F93DF93CF9300D025
:1020400000D00F92CDB7DEB72C011B015A83498314
:10205000722E6A2CBB82CC82DD826401AA8CBB8C7E
:102060008CE0821738F1F894822E9924880C991C00
:10207000F401EB55F84F80819181892BE9F0789438
:1020800018E2812F0F900F900F900F900F90CF912B
:10209000DF911F910F91FF90EF90DF90CF90BF9055
:1020A000AF909F908F907F906F905F904F903F90F8
:1020B0002F9008951AE2E5CF81E090E0918380832C
:1020C0007894A0FC02C0A1FE07C0C70160E070E0E8
:1020D000462D5B810E94B71DC201B10149815A8121
:1020E00095010E94FE04BC01872DA7019801E62CF2
:1020F000FB800C811D810E944C0C182F882379F4E1
:10210000F8948091F8048F5F8093F804789480911C
:102110004404813009F0B5CF0E94E80CB2CFF894A6
:10212000E5EAF7E08E0E9F1EF4011182108278948A
:10213000A8CFAF92BF92CF92DF92EF92FF920F9310
:102140001F93CF93DF93FC01122F2D30C8F4F89426
:10215000C22FD0E0CC0FDD1FCB55D84F888199819D
:10216000892B81F0789418E2812FDF91CF911F9114
:102170000F91FF90EF90DF90CF90BF90AF900895B8
:102180001AE2F2CF81E090E0998388837894CF01BE
:1021900020E030E00E94FE04BC01812F40E050E0CE
:1021A00020E030E0EE24FF248701CC24DD24AA24A3
:1021B000BB240E944C0C182F882371F4F894809152
:1021C000F8048F5F8093F804789480914404813000
:1021D00059F60E94E80CC8CFF894198218827894B6
:1021E000C3CFDF92EF92FF920F931F93CF93DF93B2
:1021F000282F8C50833FC0F06C30B0F4F894A62F99
:10220000B0E0AA0FBB1FFD01EB55F84F8081918113
:10221000892B99F0789488E2DF91CF911F910F91EB
:10222000FF90EF90DF9008958AE2DF91CF911F91A8
:102230000F91FF90EF90DF90089581E090E09183FF
:1022400080837894D62ED694D694D6940D2D10E013
:10225000F801E35EFE4FF08097E0E92EE622EE2DD6
:10226000F0E0E35EFE4F7081F8942F3F09F452C016
:10227000E22FF0E0EE0FFF1FEB55F84FC081D18148
:10228000209709F44DC0118210828E8D482F50E0A6
:10229000FA01E45EFA4F20819F8D822F892301F19C
:1022A000892F809582238083882309F440C09091F0
:1022B0001B059F2990931B05F801E45EFA4F80816E
:1022C000872B8083AB55B84FCD93DC936C8FDE8E1C
:1022D000ED8EF8A27F8F78940E94E80C80E0A5CF65
:1022E0002A893B892115310569F3F901E40FF51FAE
:1022F000892F80959681892386838823F1F0F901BF
:1023000091819F29F9019183E00FF11F8681872B2D
:102310008683D8CFE0912205F0912305248DA8CFA4
:10232000AB55B84F1D921C92789489E27ECF88A15C
:10233000809590911B059823BCCF88A18095F901C9
:10234000918198239183DDCFFC010097C1F08081BA
:10235000833011F081E00895F8948181882389F415
:10236000828193812FEF8F3F920731F00196938303
:102370008283789480E00895789482E3089584E0DD
:102380000895CF0160E070E041E00E94500578942C
:102390000E94E80C80E008950F931F93CF93DF9382
:1023A000EC018A0180912105882369F4209799F036
:1023B00088818330A1F081E0FA018083DF91CF91A1
:1023C0001F910F91089582E0FA018083DF91CF91F0
:1023D0001F910F91089584E0FA018083EFCFF89464
:1023E0008A819B81009759F001979B838A83789417
:1023F000FA011082DF91CF911F910F910895E09122
:102400002205F0912305838D8160838F728F618F08
:10241000CE010E94AB0578940E94E80CF894E091FC
:102420002205F0912305838D80FD06C0138A128A50
:102430007894F8011082C2CFCE010E94E005789412
:102440008AE0F8018083BACFFF920F931F93CF9356
:10245000DF93EC018A0180912105882379F420978C
:10246000B9F088818330C1F081E0FA018083CE0128
:10247000DF91CF911F910F91FF9008958CE8FA01A1
:102480008083CE01DF91CF911F910F91FF9008952E
:1024900084E0FA018083EBCFF894F980FF2011F0FB
:1024A000FF24F394662339F4FF2071F1789488E0D7
:1024B000F8018083DCCF613029F0789487E0F8015F
:1024C0008083D5CFFF2049F0CE0160E070E041E08D
:1024D0000E94500589818823B9F7188280911E05D2
:1024E00090911F059D838C83D0931F05C0931E057B
:1024F0007894F1E0FF1629F0F8011082C0E0D0E0F6
:10250000B6CF0E94E80CF8CF188280911E059091FA
:102510001F059D838C83D0931F05C0931E0578945F
:10252000F8011082C0E0D0E0A2CF0F931F93CF93A9
:10253000DF93EC018B010097C9F16115710581F101
:102540008881823031F081E0DF91CF911F910F912E
:102550000895F8948981882399F040FF46C0CE0100
:10256000B80144E00E94500589818823C1F778941E
:102570000E94E80C80E0DF91CF911F910F910895A8
:10258000AC81BD811C962D913C911D971A968D9121
:102590009C911B972817390758F078948EE1D4CF77
:1025A00083E0DF91CF911F910F91089584E0CCCF0C
:1025B00041FF20C01896ED91FC91199712968D91CC
:1025C0009C911397E817F90779F132971996FC93C4
:1025D000EE931897118300832F5F3F4F1D963C9316
:1025E0002E931C97789480E0AFCFCE0144E00E94F8
:1025F0005005BDCF1696ED91FC911797619371939D
:102600001796FC93EE93169714968D919C911597BF
:10261000E817F90709F712968D919C911397179671
:102620009C938E931697D8CF1496ED91FC911597A5
:102630001996FC93EE931897C8CFFC01009739F1D7
:102640006115710511F18081823011F081E00895EA
:10265000F8948181882381F4A481B5811C962D9101
:102660003C911D971A968D919C911B9728173907BD
:1026700080F078948EE10895CF0144E00E945005E7
:1026800078940E94E80C80E0089583E0089584E047
:1026900008951896ED91FC91199712968D919C9141
:1026A0001397E817F90781F032971996FC93EE9388
:1026B0001897718360832F5F3F4F1D963C932E9335
:1026C0001C97789480E008951496ED91FC911597ED
:1026D0001996FC93EE931897E7CFFC01009739F118
:1026E0006115710511F18081823011F081E008954A
:1026F000F8948181882381F4A481B5811C962D9161
:102700003C911D971A968D919C911B97281739071C
:1027100080F078948EE10895CF0144E00E94500546
:1027200078940E94E80C80E0089583E0089584E0A6
:1027300008951696ED91FC911797619371931796F2
:10274000FC93EE9316972F5F3F4F1D963C932E936D
:102750001C9714968D919C911597E817F90719F01D
:10276000789480E0089512968D919C911397179616
:102770009C938E931697F4CFEF92FF920F931F9333
:10278000CF93DF938C017A0180912105882309F092
:102790006BC00115110509F46DC0F801808182300C
:1027A00009F05CC0F894F801A481B5811C968D9164
:1027B0009C911D97009709F11896ED91FC9119973E
:1027C000C191D1911996FC93EE93189701971D969C
:1027D0009C938E931C9714968D919C911597E81756
:1027E000F90799F17894F7011082CE01DF91CF912A
:1027F0001F910F91FF90EF900895E0912205F091C5
:102800002305838D8460838F728F618FC8010E943E
:10281000AB0578940E94E80CF894E0912205F091C1
:102820002305C489D589209759F1158A148A138EF6
:10283000138A128A7894F7011082CE01DF91CF912A
:102840001F910F91FF90EF90089512968D919C919A
:10285000139719969C938E931897C4CF81E0FA0131
:102860008083C0E0D0E0C1CF82E0FA018083C0E085
:10287000D0E0BBCF84E0FA018083C0E0D0E0B5CFE8
:10288000C8010E94E00578948AE0F7018083ADCF0B
:10289000FF920F931F93CF93DF93EC018A018091F6
:1028A0002105882309F05EC0209739F188818230A4
:1028B00051F081E0FA018083CE01DF91CF911F9129
:1028C0000F91FF900895F894F980FF2089F4662312
:1028D00041F4FF2009F44FC0789488E0F801808328
:1028E000EBCF6130A1F0789487E0F8018083E4CFEA
:1028F000FF24F394662369F3F4CF84E0FA01808324
:10290000CE01DF91CF911F910F91FF900895FF208D
:1029100049F0CE0160E070E044E00E9450058981FA
:102920008823B9F7EC81FD818091190590911A05F2
:1029300091838083F0931A05E093190518828091A2
:102940001E0590911F059D838C83D0931F05C09316
:102950001E057894F1E0FF1659F0F8011082C0E0EE
:10296000D0E0AACF8CE8FA018083C0E0D0E0A4CF09
:102970000E94E80CF2CFEC81FD81809119059091C5
:102980001A0591838083F0931A05E0931905188244
:1029900080911E0590911F059D838C83D0931F0508
:1029A000C0931E057894F8011082C0E0D0E084CF77
:1029B000CF93DF93EC01809121058823E9F42097E0
:1029C000F9F08881843021F081E0DF91CF91089582
:1029D000F8943A814B81A0912205B09123055C9631
:1029E0008C915C97841771F0381709F456C078946D
:1029F00088E7DF91CF91089585E0DF91CF91089529
:102A000084E0E3CF5E96EC915E97F0E0E45EFA4FEF
:102A10005F968C915F97809590818923808388232E
:102A200049F490969C919097909580911B058923ED
:102A300080931B055C963C935C97E32FE695E695A7
:102A4000E6955E96EC935E97F0E0E35EFE4F2081A4
:102A500090962C939097E32FE7705D96EC935D979B
:102A6000F0E0E35EFE4F90815F969C935F978091CC
:102A70001B05822B80931B055E96EC915E97F0E020
:102A8000E45EFA4F8081982B9083E32FF0E0EE0F05
:102A9000FF1FEB55F84FB183A083E42FF0E0EE0F5A
:102AA000FF1FEB55F84F81E090E09183808389818F
:102AB000882351F48A819B818F6F9B838A831D8237
:102AC0001C82789480E081CFCE0160E070E040E12C
:102AD0000E945005E82FF0E08A819B8180708E2B48
:102AE0009F2B9B838A83EE0FFF1FEB55F84F80814E
:102AF00091819D838C8378940E94E80C80E065CF5F
:102B00000F931F93CF93DF93EC018A0180912105EE
:102B1000882369F4209799F088818430A1F081E0BE
:102B2000FA018083DF91CF911F910F91089582E088
:102B3000FA018083DF91CF911F910F91089584E076
:102B4000FA018083EFCFF8942A813B812F3F09F46B
:102B50007FC0432FAC81BD815C968C915C978317BD
:102B600009F459C0E0912205F0912305848D821764
:102B700008F055C05E968C915E97E82FF0E0E45E19
:102B8000FA4F50815F969C915F97852F892309F4B6
:102B900078C0892F809585238083882349F4909677
:102BA0009C919097909580911B05892380931B059C
:102BB0005C964C935C97E42FE695E695E6955E96D9
:102BC000EC935E97F0E0E35EFE4F208190962C93AD
:102BD0009097E42FE7705D96EC935D97F0E0E35EED
:102BE000FE4F90815F969C935F9780911B05822B8F
:102BF00080931B055E96EC915E97F0E0E45EFA4FE1
:102C00008081982B9083E42FF0E0EE0FFF1FEB55AF
:102C1000F84FB183A083E0912205F0912305838DC5
:102C20008061838F728F618FCE010E94AB05789493
:102C30000E94E80CF894E0912205F0912305838D21
:102C400084FD17C0138A128A7894F80110826ACF23
:102C5000E0912205F0912305848D90E02070822B75
:102C6000932B9B838A83FD83EC837894FA011082F3
:102C700059CFCE010E94E00578948AE0F801808364
:102C800051CF5C963C935C97E32FE695E695E695ED
:102C90005E96EC935E97F0E0E35EFE4F8081909647
:102CA0008C939097E32FE7705D96EC935D97F0E03F
:102CB000E35EFE4F80815F968C935F97A4CFFF9277
:102CC0000F931F93CF93DF93EC018A01809121052D
:102CD000882381F4209709F457C088818430A1F0BB
:102CE00081E0FA018083CE01DF91CF911F910F9196
:102CF000FF9008958CE8FA018083CE01DF91CF9197
:102D00001F910F91FF900895F894F980FF2011F022
:102D1000FF24F394662339F4FF20D1F1789488E0FE
:102D2000F8018083E0CF613029F0789487E0F801E2
:102D30008083D9CFFF2049F0CE0160E070E040E110
:102D40000E94500589818823B9F7EB81F0E0EE0FEE
:102D5000FF1FEB55F84F11821082188280911E05DB
:102D600090911F059D838C83D0931F05C0931E05F2
:102D70007894F1E0FF1629F0F8011082C0E0D0E06D
:102D8000B2CF0E94E80CF8CF84E0FA018083ABCF89
:102D9000EB81F0E0EE0FFF1FEB55F84F1182108230
:102DA000188280911E0590911F059D838C83D0937E
:102DB0001F05C0931E057894F8011082C0E0D0E092
:102DC00092CF0F931F93CF93DF93EC018B0100976A
:102DD000A1F16115710559F18881813031F081E0EF
:102DE000DF91CF911F910F910895F89489818823E5
:102DF00099F040FF24C0CE01B80142E00E94500586
:102E000089818823C1F778940E94E80C80E0DF91E3
:102E1000CF911F910F9108958C819D81892BA1F0F5
:102E2000789484E1DF91CF911F910F91089583E011
:102E3000DF91CF911F910F91089584E0D1CFCE0102
:102E400042E00E945005DFCF7D836C83789480E060
:102E5000C7CFFC010097F1F061157105C9F08081C1
:102E6000813011F081E00895F8948181882339F44C
:102E700084819581892B81F0789484E10895CF0134
:102E800042E00E94500578940E94E80C80E008958A
:102E900083E0089584E0089575836483789480E0E6
:102EA0000895EF92FF920F931F93CF93DF938C01BE
:102EB0007A0180912105882309F042C0011511058E
:102EC00009F444C0F8018081813099F4F894F80144
:102ED000C481D581209799F0158214827894FA01E3
:102EE0001082CE01DF91CF911F910F91FF90EF9053
:102EF000089581E0FA018083C0E0D0E0F2CFE09154
:102F00002205F0912305838D8260838F728F618FFC
:102F1000C8010E94AB0578940E94E80CF894E091F7
:102F20002205F0912305C489D5892097A9F0158A37
:102F3000148A138E138A128A7894F7011082D1CFE3
:102F400082E0FA018083C0E0D0E0CBCF84E0FA01D8
:102F50008083C0E0D0E0C5CFC8010E94E00578942E
:102F60008AE0F7018083BDCFFF920F931F93CF9329
:102F7000DF93EC018A0180912105882379F4209761
:102F8000B9F088818130C1F081E0FA018083CE01FF
:102F9000DF91CF911F910F91FF9008958CE8FA0176
:102FA0008083CE01DF91CF911F910F91FF90089503
:102FB00084E0FA018083EBCFF894F980FF2011F0D0
:102FC000FF24F394662339F4FF2071F1789488E0AC
:102FD000F8018083DCCF613029F0789487E0F80134
:102FE0008083D5CFFF2049F0CE0160E070E042E061
:102FF0000E94500589818823B9F7188280911E05A7
:1030000090911F059D838C83D0931F05C0931E054F
:103010007894F1E0FF1629F0F8011082C0E0D0E0CA
:10302000B6CF0E94E80CF8CF188280911E059091CF
:103030001F059D838C83D0931F05C0931E05789434
:10304000F8011082C0E0D0E0A2CFCF92DF92EF92E1
:10305000FF920F931F93DF93CF930F92CDB7DEB7FD
:103060008C017901009709F478C0FC0180818530DA
:1030700071F081E0F901808380E00F90CF91DF91C2
:103080001F910F91FF90EF90DF90CF900895F894EB
:10309000442309F048C06095F80183818623838327
:1030A000F801C180D280C114D10409F463C019822F
:1030B00010C0F6016085F80183818095862368172A
:1030C000C1F0F601808191819C01690121153105D2
:1030D000F9F0F6018185813071F1813050F3823051
:1030E00099F1833071F7F6016085F80183816823D7
:1030F00041F3C6010E944D07813019F7F1E0F983D1
:10310000F601808191819C0169012115310509F742
:103110007894F981F13059F1F894F8018381789429
:10312000F7011082AACF4130E9F0789489E9F901DA
:10313000808380E0A2CFF80163816095F6018085ED
:10314000682309F4BECFD5CFF6016085F8018381ED
:103150008623681709F0B5CFCCCF86E9F9018083C3
:1031600080E08BCFF8018381862B838399CF0E94E7
:10317000E80CD2CF1982CCCF8F929F92BF92CF9280
:10318000DF92EF92FF920F931F93DF93CF93CDB710
:10319000DEB72B970FB6F894DEBF0FBECDBF7C0114
:1031A000562FB42EF9016801809121058823E9F496
:1031B000E114F104F9F0D7018C91853001F181E03F
:1031C000F801808380E02B960FB6F894DEBF0FBE27
:1031D000CDBFCF91DF911F910F91FF90EF90DF90C6
:1031E000CF90BF909F908F90089582E0D8018C93EC
:1031F00080E0E9CF86E9F801808380E0E4CF47FDF5
:1032000062C01B86F894A1E0BA1609F461C0BA1630
:1032100050F5D70113964C91842F809585238517FF
:1032200009F444C0C7014E010894811C911CB401EB
:10323000452F20E08F010E94B40678940E94E80C8C
:10324000F894E0912205F0912305838D85FD69C0F6
:10325000BB85B13009F480C0F7014381842F789495
:10326000F6011082B0CFB2E0BB1651F083E0B81681
:1032700009F443C0789487E9F601808380E0A3CF06
:10328000D70113964C91852F8423851709F057C0D9
:10329000BB85B13031F4852F80958423F70183837A
:1032A000482F842F7894D6011C928DCFBB85B130E6
:1032B00029F4842F852BF7018383482F842F78945A
:1032C000D6011C9280CF8FE7B82291E09B879ACFDE
:1032D000D70113964C91642F6095652309F448C07B
:1032E000BB85B13029F4862F842BF7018383482FC7
:1032F000842F7894D6011C9266CFD70113964C91F7
:10330000852F842309F441C0BB85B13029F4809511
:103310008423F7018383482F842F7894D6011C924D
:1033200052CFC4010E942407E0912205F0912305A9
:10333000138E78948AE0D6018C9380E044CFC70145
:103340004E010894811C911CB401452F22E08F018D
:103350000E94B406789472CF81E08B1518F1D701E2
:1033600013964C911397808D482B13964C9376CFE0
:10337000C7014E010894811C911CB401452F21E026
:103380008F010E94B406789459CFC7014E0108946A
:10339000811C911CB401452F23E08F010E94B406CB
:1033A00078944CCF93E09B1520F4D70113964C9161
:1033B00055CF808D8095F7014381482343834ECFBD
:1033C000DF92EF92FF920F931F93CF93DF938C01C5
:1033D0007A0180912105882399F401151105A1F046
:1033E000F80180818530A1F081E0FA018083C80175
:1033F000DF91CF911F910F91FF90EF90DF90089593
:103400008CE8FA018083F3CF86E9FA018083EFCF5D
:10341000F894F80121813281DD242115310511F064
:10342000DD24D394662339F4DD2079F1789488E0A3
:10343000F7018083DCCF613061F0789487E0F70199
:103440008083D5CFCE0160E00E944D0788819981AD
:103450009C01E90121153105A9F7F801108280913D
:10346000A2079091A307928381831093A3070093EF
:10347000A2077894F1E0DF1629F0F701108200E04E
:1034800010E0B5CF0E94E80CF8CFF80110828091CF
:10349000A2079091A307928381831093A3070093BF
:1034A000A2077894F701108200E010E0A0CF80918D
:1034B0004404813009F00895F894809143048823EE
:1034C00059F0815080934304882321F48091210591
:1034D000882321F0789408957894089578940E9430
:1034E000E80C08950E942B05F89480912405909192
:1034F0002505A0912605B09127050196A11DB11DB6
:103500008093240590932505A0932605B093270565
:10351000789480914404813009F00895A0915B046F
:10352000B0915C045C968C915C978C30B1F32091E7
:103530001B0541E050E01AC090968C919097282B83
:103540005E96EC915E97F0E0E45EFA4F80815F96C4
:103550009C915F97892B80831E960D90BC91A02D26
:1035600078945C968C915C978C30C1F0F894599665
:103570008D919C915A97009779F301975A969C9355
:103580008E935997892B41F75B968C915B9783FFBC
:10359000D3CF5A965C934E935997DECF20931B0559
:1035A00008958091440481110895E0911B05F0E095
:1035B000EB5DFE4FA081EA2FF0E0E45EFA4FE08180
:1035C000F0E0EB5DFE4FAA0FAA0FAA0F8081A80FB3
:1035D000A0934904A0935A04B0E0AA0FBB1FAB55B7
:1035E000B84F8D919C9190931805809317059093F7
:1035F0002305809322050E94201C08958091440495
:10360000813009F00895F89480912105882339F0DC
:10361000815080932105882311F07894089580913A
:1036200043048823D1F7E0911B05F0E0EB5DFE4FEA
:10363000808180932005E82FF0E0E45EFA4FE0817E
:10364000F0E0EB5DFE4F982F990F990F990F808155
:10365000980F9093490480915A049817F1F2E92F3A
:10366000F0E0EE0FFF1FEB55F84F808191819093B2
:103670001805809317058091ED049091EE04A091B8
:10368000EF04B091F0040196A11DB11D8093ED04EB
:103690009093EE04A093EF04B093F0040E94B71C43
:1036A000BCCF6F927F928F929F92AF92BF92CF9238
:1036B000DF92EF92FF920F931F930E942C051092BE
:1036C00024051092250510922605109227051092C8
:1036D0002105109243041092F804109244041092B1
:1036E000ED041092EE041092EF041092F004109288
:1036F0004504109246041092470410924804109218
:10370000BF071092C0071092C1071092C207109213
:10371000F1041092F2041092F3041092F404109247
:10372000A40710921B0510921C0510921D05109203
:103730005A0410924904109218051092170510921D
:1037400023051092220510925C0410925B04E5EAB6
:10375000F7E01192119227E0EF3BF207D1F78AE0F0
:1037600096E0FC017497918380838296E7E0823A29
:103770009E07B9F710928F0710928E0788EE95E09A
:103780009093F6048093F50428EA35E0F901CF011F
:103790000896108295838483FC0185E0E03EF8075B
:1037A000B1F710821582148230931F0520931E05F5
:1037B0000E9404070E9435090E940A0B00D0B3E062
:1037C0006B2E712CEDB7FEB77282618280ED9CE0AA
:1037D00060E070E047EA55E02CE00FEF1FEFA8E251
:1037E000EA2EA5E0FA2EF0E8AF2EB12CC12CD12C98
:1037F000882499240E940D10EDB7FEB77282618271
:1038000087E29EE060E070E04CEE54E02BE00EEFCB
:103810001FEFEDE6EE2EE4E0FE2E0E940D100F905D
:103820000F900E942D051F910F91FF90EF90DF9058
:10383000CF90BF90AF909F908F907F906F900895A2
:103840000E94290500914404039500934404E091EB
:103850001705F0911805C191CDBFD191DEBF0F9131
:103860000FBF0F910BBFFF91EF91DF91CF91BF91F0
:10387000AF919F918F917F916F915F914F913F9108
:103880002F911F910F91FF90EF90DF90CF90BF90FD
:10389000AF909F908F907F906F905F904F903F90F0
:1038A0002F901F900F9008950F921F922F923F928A
:1038B0004F925F926F927F928F929F92AF92BF9240
:1038C000CF92DF92EF92FF920F931F932F933F932C
:1038D0004F935F936F937F938F939F93AF93BF9318
:1038E000CF93DF93EF93FF930BB70F930FB70F9324
:1038F000E0912205F0912305CDB7C193DEB7D193B6
:103900000E9429050091490400935A04E09117058B
:10391000F0911805E0932205F0932305C191CDBFE6
:10392000D191DEBF0F910FBF0F910BBFFF91EF91B0
:10393000DF91CF91BF91AF919F918F917F916F91C7
:103940005F914F913F912F911F910F91FF90EF90B9
:10395000DF90CF90BF90AF909F908F907F906F90AF
:103960005F904F903F902F901F900F9008950E946E
:1039700029050091490400935A04E0911705F0913C
:103980001805E0932205F0932305C191CDBFD19195
:10399000DEBF0F910FBF0F910BBFFF91EF91DF9132
:1039A000CF91BF91AF919F918F917F916F915F91D7
:1039B0004F913F912F911F910F91FF90EF90DF90CA
:1039C000CF90BF90AF909F908F907F906F905F90BF
:1039D0004F903F902F901F900F9008950F921F923D
:1039E0002F923F924F925F926F927F928F929F920F
:1039F000AF92BF92CF92DF92EF92FF920F931F93FD
:103A00002F933F934F935F936F937F938F939F93E6
:103A1000AF93BF93CF93DF93EF93FF930BB70F93C6
:103A20000FB700680F9300912105039500932105BE
:103A3000013041F4CDB7DEB7E0912205F0912305C6
:103A4000C193D19304E602BF78940E94721A0000D9
:103A50000E94FE1A0F910FBF0F910BBFFF91EF91C4
:103A6000DF91CF91BF91AF919F918F917F916F9196
:103A70005F914F913F912F911F910F91FF90EF9088
:103A8000DF90CF90BF90AF909F908F907F906F907E
:103A90005F904F903F902F901F900F900895629FDE
:103AA000D001739FF001829FE00DF11D649FE00D36
:103AB000F11D929FF00D839FF00D749FF00D659F97
:103AC000F00D9927729FB00DE11DF91F639FB00D96
:103AD000E11DF91FBD01CF011124089597FB092EA7
:103AE00007260AD077FD04D02ED006D000201AF485
:103AF000709561957F4F0895F6F7909581959F4F4A
:103B00000895A1E21A2EAA1BBB1BFD010DC0AA1F1E
:103B1000BB1FEE1FFF1FA217B307E407F50720F036
:103B2000A21BB30BE40BF50B661F771F881F991FB1
:103B30001A9469F760957095809590959B01AC01FA
:103B4000BD01CF010895AA1BBB1B51E107C0AA1FED
:103B5000BB1FA617B70710F0A61BB70B881F991F2E
:103B60005A95A9F780959095BC01CD010895DC0187
:103B700001C06D9341505040E0F70895F894FFCF95
:103B8000010204080001020408102040803F065B87
:103B90004F666D7D277F6F713077791400010204C5
:103BA0000810204080000001000200010003000115
:103BB00000020001000400010002000100030001F6
:103BC00000020001000500010002000100030001E5
:103BD00000020001000400010002000100030001D6
:103BE00000020001000600010002000100030001C4
:103BF00000020001000400010002000100030001B6
:103C000000020001000500010002000100030001A4
:103C10000002000100040001000200010003000195
:103C20000002000100070001000200010003000182
:103C30000002000100040001000200010003000175
:103C40000002000100050001000200010003000164
:103C50000002000100040001000200010003000155
:103C60000002000100060001000200010003000143
:103C70000002000100040001000200010003000135
:103C80000002000100050001000200010003000124
:103C90000002000100040001000200010003000115
:063CA0000002000100001B
:00000001FF
