:100000000C9446000C9465000C9465000C946500FB
:100010000C9465000C9465000C9465000C946500CC
:100020000C9465000C9465000C9465000C946500BC
:100030000C9465000C9465000C9465000C946500AC
:100040000C9465000C9465000C9465000C9465009C
:100050000C9465000C9465000C9465000C9465008C
:100060000C9465000C9465000C9465000C9465007C
:100070000C9465000C9465000C9465000C9465006C
:100080000C9465000C9465000C94650011241FBE4F
:10009000CFEFD0E1DEBFCDBF11E0A0E0B1E0EAE8F4
:1000A000F1E000E00BBF02C007900D92AE30B10747
:1000B000D9F711E0AEE0B1E001C01D92A131B10766
:1000C000E1F70E94B3000C94C3000C94000017B831
:1000D00087E886B90895369A349BFECF24B145B19E
:1000E000942F80E030E0282B392BC90108958756E2
:1000F000934000F58FEF8BBB86E085BB20E030E0BE
:1001000060E140EA5FE0F901E370F070E65FFE4F06
:1001100080818093650068BBCA010197F1F718BA26
:10012000CA010197F1F72F5F3F4F82E0283538076A
:1001300051F708951BBA8FE385BB20E030E040EA19
:100140005FE0F901E370F070E65FFE4F808180931D
:100150006500CA010197F1F72F5F3F4F82E0283514
:10016000380779F708959FEF9ABB80E187BB94BB6E
:100170008FE08093640017B887E886B90E946B000F
:0A0180000E947700FBCFF894FFCF38
:0E018A003F065B4F666D7D277F6F0804020104
:00000001FF
