:100000000C9446000C9465000C9465000C946500FB
:100010000C9465000C94B1000C94D4000C94650011
:100020000C9465000C9465000C9465000C946500BC
:100030000C9465000C9465000C9465000C946500AC
:100040000C9465000C9465000C9465000C9465009C
:100050000C9465000C9465000C9465000C9465008C
:100060000C9465000C9465000C9465000C9465007C
:100070000C9465000C9465000C9465000C9465006C
:100080000C9465000C9465000C94650011241FBE4F
:10009000CFEFD0E1DEBFCDBF11E0A0E0B1E0EAEBF1
:1000A000F2E000E00BBF02C007900D92A031B10753
:1000B000D9F711E0A0E1B1E001C01D92A431B10770
:1000C000E1F70E940C010C945B010C940000EF928C
:1000D000FF920F931F93CF93DF938C01C0E0D0E08A
:1000E00028EE33E080E1E82E87E2F82EC130D1051A
:1000F00079F4C801B9010E943401CB016AE070E0D3
:100100000E943401FC01E050FF4F808180580DC0F7
:10011000C801B9010E943401CB016AE070E00E947D
:100120003401FC01E050FF4F808185BBFE01E65F9A
:10013000FE4F808180936500C7010197F1F72196FA
:10014000C430D10539F0C9016AE070E00E94340181
:100150009B01CCCFDF91CF911F910F91FF90EF903A
:1001600008951F920F920FB60F9211248F939F93B1
:100170008091100190911101019729F410921101C1
:100180001092100106C081E090E0909311018093DD
:10019000100180E49CE90197F1F79F918F910F90F6
:1001A0000FBE0F901F9018951F920F920FB60F92CF
:1001B0000BB60F9211242F933F934F935F936F933E
:1001C0007F938F939F93AF93BF93EF93FF93809110
:1001D000100190911101892B41F41092130110929A
:1001E000120180E090E00E94670080E49CE90197A2
:1001F000F1F7FF91EF91BF91AF919F918F917F9117
:100200006F915F914F913F912F910F900BBE0F9087
:100210000FBE0F901F9018958FEF84BB8FE08093D7
:1002200064008FEC82B98AE08ABF80E389BF8FB710
:1002300080688FBF80911201909113010E94670026
:1002400080911001909111010197A1F78091120105
:1002500090911301019660E177E20E94340190933E
:10026000130180931201E6CF97FB092E07260AD0CF
:1002700077FD04D00CD006D000201AF4709561955B
:100280007F4F0895F6F7909581959F4F0895AA1B8B
:10029000BB1B51E107C0AA1FBB1FA617B70710F071
:1002A000A61BB70B881F991F5A95A9F780959095A3
:0A02B000BC01CD010895F894FFCFC2
:1002BA003F065B4F666D7D277F6F08040201800051
:00000001FF
