:100000000C9446000C9465000C9465000C946500FB
:100010000C9465000C9465000C9499000C94650098
:100020000C9465000C9465000C9465000C946500BC
:100030000C9465000C9465000C9465000C946500AC
:100040000C9467000C9465000C9465000C9465009A
:100050000C9465000C9465000C9465000C9465008C
:100060000C9465000C9465000C9465000C9465007C
:100070000C9465000C9465000C9465000C9465006C
:100080000C9465000C9465000C94650011241FBE4F
:10009000CFEFD0E1DEBFCDBF11E0A0E0B1E0E0E105
:1000A000F2E000E00BBF02C007900D92A830B1074C
:1000B000D9F711E0A8E0B1E001C01D92AC30B10762
:1000C000E1F70E94C6000C9406010C9400001F92F8
:1000D0000F920FB60F920BB60F9211248F939F932E
:1000E000EF93FF938091080190910901019731F4FA
:1000F00018BA109209011092080108C080E188BB6B
:1001000081E090E09093090180930801E0910A0159
:10011000F0910B01E050FF4F808182BFFF91EF9182
:100120009F918F910F900BBE0F900FBE0F901F905D
:1001300018951F920F920FB60F9211242F933F9391
:100140005F936F937F938F939F93AF93BF938091B0
:100150000A0190910B01019668E070E00E94DF00B7
:1001600090930B0180930A0180E49CE90197F1F7D9
:10017000BF91AF919F918F917F916F915F913F91CF
:100180002F910F900FBE0F901F90189580E187BBA5
:100190008FED82B988E08ABF80E289BF8FB780681F
:1001A0008FBF83E083BF81E087BFE0910A01F091B8
:1001B0000B01E050FF4F808182BF7894FFCF97FB07
:1001C000092E07260AD077FD04D00CD006D00020D7
:1001D0001AF4709561957F4F0895F6F79095819583
:1001E0009F4F0895AA1BBB1B51E107C0AA1FBB1F4D
:1001F000A617B70710F0A61BB70B881F991F5A95B3
:10020000A9F780959095BC01CD010895F894FFCF92
:08021000112B424D617275894A
:00000001FF
