:100000000C9446000C9465000C9465000C946500FB
:100010000C9465000C9465000C9465000C946500CC
:100020000C9465000C9465000C9465000C946500BC
:100030000C9465000C9465000C9465000C946500AC
:100040000C9467000C9465000C9465000C9465009A
:100050000C9465000C9465000C9465000C9465008C
:100060000C9465000C9465000C9465000C9465007C
:100070000C9465000C9465000C9465000C9465006C
:100080000C9465000C9465000C94650011241FBE4F
:10009000CFEFD0E1DEBFCDBF11E0A0E0B1E0E4EDF5
:1000A000F1E000E00BBF02C007900D92AE32B10745
:1000B000D9F711E0AEE2B1E001C01D92A233B10761
:1000C000E1F70E9499000C94E8000C9400001F9244
:1000D0000F920FB60F920BB60F9211248F939F932E
:1000E000EF93FF9380912E0190912F01019731F4AE
:1000F00018BA10922F0110922E0108C080E188BB1F
:1001000081E090E090932F0180932E01E0913001E7
:10011000F0913101E050FF4F808182BFFF91EF915C
:100120009F918F910F900BBE0F900FBE0F901F905D
:100130001895CF93DF9380E187BB83E083BF81E095
:1001400087BFE0913001F0913101E050FF4F808195
:1001500082BF7894C0E9D1E0809130019091310163
:1001600001966DE270E00E94C1009093310180938E
:10017000300180ED97E0FE013197F1F70197D9F753
:10018000EBCF97FB092E07260AD077FD04D00CD0C1
:1001900006D000201AF4709561957F4F0895F6F708
:1001A000909581959F4F0895AA1BBB1B51E107C0F5
:1001B000AA1FBB1FA617B70710F0A61BB70B881FF7
:1001C000991F5A95A9F780959095BC01CD01089586
:0401D000F894FFCFD1
:1001D40011426189728972614D6142112B11616111
:1001E4004D4D4261422B61614D4D4261422B1142A2
:0E01F4006189728972614D6142112B2B1100DD
:00000001FF
