:100000000C9446000C9465000C9465000C946500FB
:100010000C9465000C9465000C9465000C946500CC
:100020000C9465000C9465000C9465000C946500BC
:100030000C9465000C9465000C9465000C946500AC
:100040000C94D0060C9465000C9465000C9465002B
:100050000C9465000C9465000C9465000C9465008C
:100060000C9465000C9465000C9465000C9465007C
:100070000C9465000C9465000C9465000C9465006C
:100080000C9465000C9465000C94650011241FBE4F
:10009000CFEFD0E1DEBFCDBF12E0A0E0B1E0E8EEEF
:1000A000FEE000E00BBF02C007900D92AA30B1073E
:1000B000D9F714E0AAE0B2E001C01D92A23BB1075B
:1000C000E1F70E9486000C9472070C9400008FEFF9
:1000D0008ABB709101016091000140E951E06BBB66
:1000E00020ED37E0CA010197F1F721503040D1F7F8
:1000F000713051F0660F662321F0603881F771E0AE
:10010000EECF70E061E0EBCF6695F5CF0E948605FB
:10011000F89487E083BF81E087BF84E682BF78944C
:1001200087E690E060E070E049E852E020E00E945D
:10013000E3030E94060580E090E00895FA018083C1
:10014000929312921292129212921292129212920E
:10015000129212921292129212921292129212927F
:10016000129212921292129212921292129212926F
:1001700012926293729312921292129212921292AD
:100180001292129280E882933197CF0108950895D8
:100190000895089508950895089508950895089577
:1001A00080918B02813009F00895809128038F3F60
:1001B000D9F38F5F80932803089580918B0281305B
:1001C00009F00895F89480918A028F3F19F08F5FAB
:1001D00080938A02789408958CEF90E008951F939D
:1001E000CF93DF93EC01142F3981E32FF0E0E65F2A
:1001F000FE4F2081622F70E0FB01EE5FFE4F4081D9
:10020000DC01A60FB71F16969C911697E92FF0E018
:10021000E65FFE4F8081E82FF0E0EE5FFE4F5081F9
:10022000220F220F220F280F852F809589231696E3
:100230008C93882321F4842F809538233983E22FEF
:10024000F0E0EE0FFF1FEC56FB4F0190F081E02D28
:100250001186108617821682812F809592858923B8
:100260008287882359F480912203842B8093220370
:10027000FB01ED5DFC4F8081582B5083822FDF9175
:10028000CF911F910895CF93DF93EC01A0912903A3
:10029000B0912A0317969C938E9316971D968C9176
:1002A0001D97482F50E01E963C911E97FA01ED5D78
:1002B000FC4F832F80959081892380838823A9F424
:1002C0001F962C91922F90958091220389238093E1
:1002D0002203FE01E40FF51F8681832B868389812B
:1002E000822B8983DF91CF9108951F962C91F1CFB6
:1002F000CF93DF93EC01A0912903B0912A031D96BF
:100300008C911D97FE01E80FF11D1E968C911E9792
:100310008095968189238683882339F41F969C9142
:100320001F9790958981892389831A961C921A9721
:1003300017961C921E921697DF91CF910895FC019B
:1003400011821682178208959C01809128038823C8
:10035000D9F4F894E0912503F0912603309731F019
:100360008481958190932603809325037894309718
:1003700049F083E0808333832283158214821182C3
:1003800016821782CF010895E0E0F0E0CF010895D2
:100390001F93CF93DF93182FF894C0911C03D09133
:1003A0001D03209709F454C08A819B8190931D03FB
:1003B00080931C037894798368831B871A86198637
:1003C0001886E12FE695E695E695ED87F0E0EE5F7D
:1003D000FE4F80818F87E12FE770EC87F0E0EE5FC2
:1003E000FE4F80818E871F821E82CE010E94CF0029
:1003F000CE010E94C700F894E12FF0E0EE0FFF1F3E
:10040000EC56FB4FD183C083E0919202F0919302AE
:10041000FB83EA831D821C82309711F0D583C4834D
:10042000D0939302C0939202809122039F85892BDF
:1004300080932203ED85F0E0ED5DFC4F80819E8589
:10044000892B8083789480E0DF91CF911F9108956C
:10045000789486E4DF91CF911F910895F89480916C
:100460008C0290918D02A0918E02B0918F02019624
:10047000A11DB11D80938C0290938D02A0938E02DA
:10048000B0938F0278940E94CE00E8CFF8948091C8
:100490002803882309F03FC080918A028823D9F578
:1004A000E0912203F0E0E65FFE4F8081E82FF0E06C
:1004B000ED5DFC4FE081F0E0E65FFE4F982F990F75
:1004C000990F990F8081980F9093900280919102DB
:1004D000981709F1E92FF0E0EE0FFF1FEC56FB4FE4
:1004E0008081918190932103809320038091140354
:1004F00090911503A0911603B09117030196A11DC9
:10050000B11D8093140390931503A0931603B09329
:1005100017030E943606789408959C01009721F1F4
:10052000F894A0912903B0912A031D96EC911D9790
:10053000F0E0ED5DFC4F1E968C911E9780959081AA
:1005400089238083882349F41F969C911F97909557
:100550008091220389238093220319963C932E9342
:10056000189778940E94460208958F929F92AF92B6
:10057000BF92CF92DF92EF92FF920F931F93CF9390
:10058000DF93882E162F942E8823C9F01C3300F594
:100590008BE3891590F093E0283E3907D8F083E586
:1005A000DF91CF911F910F91FF90EF90DF90CF904F
:1005B000BF90AF909F908F90089582E5F1CF662312
:1005C00029F7442329F72115310529F784E5E8CFD8
:1005D00081E5E6CFB90180E090E024E630E040E03C
:1005E00050E00E9431076C507E4F8F4F9F4F28EE96
:1005F00033E040E050E00E94500759016A01612F4A
:1006000070E080E090E02CE330E040E050E00E94B9
:1006100031077B018C01E90CF11C011D111D682DB6
:1006200070E080E090E020E13EE040E050E00E9499
:100630003107E60EF71E081F191FC801B70124E68F
:1006400030E040E050E00E943107A60EB71EC81E01
:10065000D91E760100271127E7018FEF9FEFA0E059
:10066000B0E0A822B922CA22DB22C5010E948D0275
:10067000EF2851F080E090E80E948D0280E090E841
:100680000E948D022197B1F780E08ACFDF92EF922E
:10069000FF920F931F9380919304882341F488EC79
:1006A00090E00E948D02809193048823C1F36091B1
:1006B00018037091190380911A0390911B0324E68B
:1006C00030E040E050E00E945007C901DA017C01AF
:1006D0008D0144E6D42E10C0A80197010E94500756
:1006E0008D2D821B87FD44C080931E030E94CA008B
:1006F00084E690E00E948D02F89480918C029091A3
:100700008D02A0918E02B0918F028093AE049093DF
:10071000AF04A093B004B093B10460918C027091C7
:100720008D0280918E0290918F0210928C02109215
:100730008D0210928E0210928F027894E114F104CF
:100740000105110549F610921E036091180370917E
:10075000190380911A0390911B0324E630E040E0D6
:1007600050E00E945007C901DA017C018D01BECF23
:1007700010921E03BBCF82E090E00E948D02F8949D
:1007800010928C0210928D0210928E0210928F02A3
:10079000789484E690E00E948D02F89480918C0217
:1007A00090918D02A0918E02B0918F0280931803D8
:1007B00090931903A0931A03B0931B0381E08093D5
:1007C000930478940895AF92BF92CF92DF92EF9204
:1007D000FF920F931F93CF93DF93FC01122FF89496
:1007E000C22FD0E0CC0FDD1FCC56DB4F8881998122
:1007F000892B71F0789418E2812FDF91CF911F91AE
:100800000F91FF90EF90DF90CF90BF90AF90089541
:1008100081E090E0998388837894CF0120E030E0F4
:100820000E949E00BC01812F40E050E020E030E0BB
:10083000EE24FF248701CC24DD24AA24BB240E94BB
:10084000C801182F882371F4F89480911F038F5FDB
:1008500080931F03789480918B02813069F60E9407
:100860004602CACFF894198218827894C5CFFC0149
:10087000F8948181882379F4828193812FEF8F3FCF
:10088000920731F0019693838283789480E00895F3
:10089000789482E30895CF0160E070E041E00E9427
:1008A000EF0078940E94460280E008950F931F9312
:1008B000CF93DF93EC018A0180912803882381F490
:1008C000F8948A819B81009799F001979B838A8392
:1008D0007894FA011082DF91CF911F910F910895C2
:1008E00082E0FA018083DF91CF911F910F910895EB
:1008F000E0912903F0912A038285816082877187C4
:100900006087CE010E94430178940E944602F894C9
:10091000E0912903F0912A03828580FD0AC01782A5
:1009200016827894F8011082DF91CF911F910F9178
:100930000895CE010E94780178948AE0F8018083BE
:10094000CACF80918B02813009F00895F89480918C
:100950008A02882359F0815080938A02882321F4E7
:1009600080912803882321F078940895789408953D
:1009700078940E94460208950E94CB0080918B02D9
:10098000813009F00895A0919202B09193021B96D4
:100990008C911B978C30B1F32091220341E050E001
:1009A0001AC01F968C911F97282B1D96EC911D97AE
:1009B000F0E0ED5DFC4F80811E969C911E97892B87
:1009C000808312960D90BC91A02D78941B968C91EB
:1009D0001B978C30C1F0F89418968D919C911997C3
:1009E000009779F3019719969C938E931897892B0A
:1009F00041F71A968C911A9783FFD3CF19965C937F
:100A00004E931897DECF20932203089580918B0296
:100A100081110895E0912203F0E0E65FFE4FA0818E
:100A2000EA2FF0E0ED5DFC4FE081F0E0E65FFE4F85
:100A3000AA0FAA0FAA0F8081A80FA0939002A093DB
:100A40009102B0E0AA0FBB1FAC56BB4F8D919C9199
:100A5000909321038093200390932A03809329038A
:100A60000E940206089580918B02813009F008955A
:100A7000F89480912803882339F0815080932803CB
:100A8000882311F07894089580918A028823D1F701
:100A9000E0912203F0E0E65FFE4F80818093270320
:100AA000E82FF0E0ED5DFC4FE081F0E0E65FFE4F07
:100AB000982F990F990F990F8081980F909390021A
:100AC000809191029817F1F2E92FF0E0EE0FFF1FED
:100AD000EC56FB4F808191819093210380932003FA
:100AE0008091140390911503A0911603B091170300
:100AF0000196A11DB11D8093140390931503A0933B
:100B00001603B09317030E949906BCCF0E94CC0035
:100B10001092280310928A0210921F0310928B02E7
:100B200010921403109215031092160310921703DB
:100B300010928C0210928D0210928E0210928F02EF
:100B40001092220310922303109224031092910218
:100B500010929002109221031092200310922A0307
:100B6000109229031092930210929202E4E9F4E0A9
:100B70001192119224E0EE3AF207D1F783ED93E05F
:100B8000FC013E9791838083409624E0833992074D
:100B9000B9F7109286041092850483EC93E0909349
:100BA0001D0380931C031092AB0383EB93E090939F
:100BB000B0038093AF031092B30308969093B803E9
:100BC0008093B70340971092BB031092C00310921A
:100BD000BF0390932603809325038EE292E060E0AA
:100BE00070E04AEA53E02CE00E94E30386E493E0DD
:100BF00060E070E043E153E02BE00E94E3030E94D9
:100C0000CD0008950E94C90000918B0203950093C6
:100C10008B02E0912003F0912103C191CDBFD191CE
:100C2000DEBF0F910FBF0F910BBFFF91EF91DF91CF
:100C3000CF91BF91AF919F918F917F916F915F9174
:100C40004F913F912F911F910F91FF90EF90DF9067
:100C5000CF90BF90AF909F908F907F906F905F905C
:100C60004F903F902F901F900F9008950F921F92DA
:100C70002F923F924F925F926F927F928F929F92AC
:100C8000AF92BF92CF92DF92EF92FF920F931F939A
:100C90002F933F934F935F936F937F938F939F9384
:100CA000AF93BF93CF93DF93EF93FF930BB70F9364
:100CB0000FB70F93E0912903F0912A03CDB7C193A9
:100CC000DEB7D1930E94C900009190020093910277
:100CD000E0912003F0912103E0932903F0932A038C
:100CE000C191CDBFD191DEBF0F910FBF0F910BBF4F
:100CF000FF91EF91DF91CF91BF91AF919F918F9134
:100D00007F916F915F914F913F912F911F910F9123
:100D1000FF90EF90DF90CF90BF90AF909F908F901B
:100D20007F906F905F904F903F902F901F900F900B
:100D300008950E94C9000091900200939102E091F1
:100D40002003F0912103E0932903F0932A03C1913A
:100D5000CDBFD191DEBF0F910FBF0F910BBFFF91A0
:100D6000EF91DF91CF91BF91AF919F918F917F9143
:100D70006F915F914F913F912F911F910F91FF9034
:100D8000EF90DF90CF90BF90AF909F908F907F902B
:100D90006F905F904F903F902F901F900F9008950D
:100DA0000F921F922F923F924F925F926F927F927B
:100DB0008F929F92AF92BF92CF92DF92EF92FF926B
:100DC0000F931F932F933F934F935F936F937F9353
:100DD0008F939F93AF93BF93CF93DF93EF93FF9343
:100DE0000BB70F930FB700680F930091280303957B
:100DF00000932803013041F4CDB7DEB7E091290319
:100E0000F0912A03C193D19304E602BF78940E9423
:100E1000BC0400000E9433050F910FBF0F910BBF60
:100E2000FF91EF91DF91CF91BF91AF919F918F9102
:100E30007F916F915F914F913F912F911F910F91F2
:100E4000FF90EF90DF90CF90BF90AF909F908F90EA
:100E50007F906F905F904F903F902F901F900F90DA
:100E60000895629FD001739FF001829FE00DF11DF4
:100E7000649FE00DF11D929FF00D839FF00D749F14
:100E8000F00D659FF00D9927729FB00DE11DF91FC0
:100E9000639FB00DE11DF91FBD01CF01112408951D
:100EA000A1E21A2EAA1BBB1BFD010DC0AA1FBB1F6E
:100EB000EE1FFF1FA217B307E407F50720F0A21BE0
:100EC000B30BE40BF50B661F771F881F991F1A944D
:100ED00069F760957095809590959B01AC01BD0177
:080EE000CF010895F894FFCF43
:100EE8008001010204081020408000000100020077
:100EF80001000300010002000100040001000200DB
:100F080001000300010002000100050001000200C9
:100F180001000300010002000100040001000200BA
:100F280001000300010002000100060001000200A8
:100F3800010003000100020001000400010002009A
:100F48000100030001000200010005000100020089
:100F5800010003000100020001000400010002007A
:100F68000100030001000200010007000100020067
:100F7800010003000100020001000400010002005A
:100F88000100030001000200010005000100020049
:100F9800010003000100020001000400010002003A
:100FA8000100030001000200010006000100020028
:100FB800010003000100020001000400010002001A
:100FC8000100030001000200010005000100020009
:100FD80001000300010002000100040001000200FA
:0A0FE80001000300010002000100F7
:00000001FF
