:100000000C9446000C945D000C945D000C945D0013
:100010000C945D000C945D000C945D000C945D00EC
:100020000C945D000C945D000C945D000C945D00DC
:100030000C945D000C945D000C945D000C945D00CC
:100040000C945D000C945D000C945D000C945D00BC
:100050000C945D000C945D000C945D000C945D00AC
:100060000C945D000C945D000C945D000C945D009C
:100070000C945D000C945D000C945D000C945D008C
:100080000C945D000C945D000C945D0011241FBE67
:10009000CFEFD0E1DEBFCDBF11E0A0E0B1E0EAEFED
:1000A000F0E000E00BBF02C007900D92A030B10756
:1000B000D9F70E945F000C947B000C9400008FEF36
:1000C0008ABB20E831E040E951E002C021E030E0A5
:1000D0002BBB80ED97E0FA013197F1F70197D9F743
:1000E000313011F4269501C0220F222379F32038F4
:0A00F00079F731E0EDCFF894FFCF6F
:00000001FF
