:100000000C9446000C945D000C945D000C945D0013
:100010000C945D000C945D000C945D000C945D00EC
:100020000C945D000C945D000C945D000C945D00DC
:100030000C945D000C945D000C945D000C945D00CC
:100040000C945D000C945D000C945D000C945D00BC
:100050000C945D000C945D000C945D000C945D00AC
:100060000C945D000C945D000C945D000C945D009C
:100070000C945D000C945D000C945D000C945D008C
:100080000C945D000C945D000C945D0011241FBE67
:10009000CFEFD0E1DEBFCDBF11E0A0E0B1E0E2EAFA
:1000A000F1E000E00BBF02C007900D92A031B10754
:1000B000D9F70E9478000C94CF000C940000AC019A
:1000C00020E030E060E177E2FA01E20FF31F808187
:1000D00085BBF901E65FFE4F808180936500FB01DF
:1000E0003197F1F72F5F3F4F2430310569F70895BD
:1000F0006F927F928F929F92AF92BF92CF92DF9238
:10010000EF92FF920F931F93DF93CF9300D000D015
:10011000CDB7DEB78FEF84BB8FE080936400AA2455
:10012000BB243E010894611C711C2AE0822E21E050
:10013000922E8AE0A816B10411F4AA24BB24F5017A
:10014000E050FF4F8081898390E0C92E91E0D92E45
:10015000F601808180588A8380E0E82E81E0F82EC5
:10016000F70180818B8300E011E0F80181918F011C
:100170008C83C3010E945F0080169106B1F708943A
:10018000E11CF11C8E149F0459F70894C11CD11C6A
:100190008C149D04E9F60894A11CB11CCACFF894F4
:0201A000FFCF8F
:1001A2003F065B4F666D7D277F6F0804020180006A
:00000001FF
