:100000000C9446000C945D000C945D000C945D0013
:100010000C945D000C945D000C945D000C945D00EC
:100020000C945D000C945D000C945D000C945D00DC
:100030000C945D000C945D000C945D000C945D00CC
:100040000C945D000C945D000C945D000C945D00BC
:100050000C945D000C945D000C945D000C945D00AC
:100060000C945D000C945D000C945D000C945D009C
:100070000C945D000C945D000C945D000C945D008C
:100080000C945D000C945D000C945D0011241FBE67
:10009000CFEFD0E1DEBFCDBF11E0A0E0B1E0EAEFED
:1000A000F2E000E00BBF02C007900D92AA31B10749
:1000B000D9F70E945F000C947B010C940000CF9351
:1000C000DF939FEF94BB8FE0809364009ABBC0EAFC
:1000D000DFE00E940F0168E070E00E948D00FC01EB
:1000E000DC01A25FBE4F8C918BBBE050FF4F408183
:1000F00020E030E045BBF901E370F070E65FFE4FB1
:10010000808180936500CE010197F1F72F5F3F4F0B
:1001100082E02835380771F7DCCF97FB092E0726D8
:100120000AD077FD04D00CD006D000201AF47095C8
:1001300061957F4F0895F6F7909581959F4F0895AB
:10014000AA1BBB1B51E107C0AA1FBB1FA617B707FD
:1001500010F0A61BB70B881F991F5A95A9F7809519
:100160009095BC01CD010895AF92BF92CF92DF92DE
:10017000EF92FF920F931F93CF93DF93EC01A88030
:10018000B980CA80DB80A114B104C104D10441F458
:1001900084E2A82E89EDB82E8BE5C82E87E0D82EF4
:1001A000C601B5012DE133EF41E050E00E943E0170
:1001B00027EA31E440E050E00E941F017B018C01FE
:1001C000C601B5012DE133EF41E050E00E943E0150
:1001D000CA01B9012CEE34EF4FEF5FEF0E941F010F
:1001E0006E0D7F1D801F911F97FF04C061507040EE
:1001F00080409048688379838A839B839B013F7703
:10020000C901DF91CF911F910F91FF90EF90DF9087
:10021000CF90BF90AF9008950E94B400089586E1FA
:1002200091E00E94B4000895A0E0B0E08093160130
:1002300090931701A0931801B09319010895629F3C
:10024000D001739FF001829FE00DF11D649FE00DCE
:10025000F11D929FF00D839FF00D749FF00D659F2F
:10026000F00D9927729FB00DE11DF91F639FB00D2E
:10027000E11DF91FBD01CF011124089597FB092E3F
:1002800005260ED057FD04D014D00AD0001C38F437
:1002900050954095309521953F4F4F4F5F4F0895B2
:1002A000F6F790958095709561957F4F8F4F9F4F92
:1002B0000895A1E21A2EAA1BBB1BFD010DC0AA1FA7
:1002C000BB1FEE1FFF1FA217B307E407F50720F0BF
:1002D000A21BB30BE40BF50B661F771F881F991F3A
:1002E0001A9469F760957095809590959B01AC0183
:0A02F000BD01CF010895F894FFCF7F
:1002FA003F065B4F666D7D277F6F0804020101028E
:0A030A0004081020408001000000EC
:00000001FF
