:100000000C9446000C9465000C9465000C946500FB
:100010000C9465000C9465000C9465000C946500CC
:100020000C9465000C9465000C9465000C946500BC
:100030000C9465000C9465000C9465000C946500AC
:100040000C949B080C9465000C9465000C9465005E
:100050000C9465000C9465000C9465000C9465008C
:100060000C9465000C9465000C9465000C9465007C
:100070000C9465000C9465000C9465000C9465006C
:100080000C9465000C9465000C94650011241FBE4F
:10009000CFEFD0E1DEBFCDBF12E0A0E0B1E0E6E9F6
:1000A000F2E100E00BBF02C007900D92AC31B10746
:1000B000D9F715E0ACE1B2E001C01D92A13EB10755
:1000C000E1F70E94A2010C9449090C94000083E01E
:1000D00082BB80B58B7F80BD1092710080E28093DF
:1000E000700084E480937400089584EA809374001F
:1000F0008091740087FFFCCF89E98093730084E8C6
:10010000809374008091740087FFFCCF84EC80930F
:1001100074008091740087FFFCCF9091730084E895
:10012000809374008091740087FFFCCF80917300EE
:10013000392F20E090E0282B392B84E9809374003C
:10014000232F330F330B213231052CF487B78F7BEC
:1001500087BFC901089587B7806487BFC901089523
:10016000982F84EA809374008091740087FFFCCFFD
:1001700080917100887F883029F080917100887F9C
:10018000803191F788E98093730084E8809374004C
:100190008091740087FFFCCF80917100887F883147
:1001A000B9F79093730084E8809374008091740091
:1001B00087FFFCCF80917100887F8832B9F7609308
:1001C000730084E8809374008091740087FFFCCFF3
:1001D00080917100887F8832B9F784E98093740038
:1001E0000895982F84EA809374008091740087FFAB
:1001F000FCCF80917100887F883029F08091710058
:10020000887F803191F788E98093730084E8809338
:1002100074008091740087FFFCCF80917100887F0B
:100220008831B9F79093730084E8809374008091CB
:10023000740087FFFCCF80917100887F8832B9F706
:1002400084E98093740008951F93DF93CF93CDB713
:10025000DEB763970FB6F894DEBF0FBECDBFAE0119
:100260004F5F5F4FDA01E0E0F1E083E101900D9232
:100270008150E1F78FEF84BB8FE08093640011E041
:10028000A0E4BFE132E020911C02822F6AE00E94CC
:100290001B09FA01E90FF11D808185BB10936500F0
:1002A000CD010197F1F7822F0E941B09FA01E80F97
:1002B000F11D808185BB30936500CD010197F1F779
:1002C000E2CF0F931F93DF93CF930F92CDB7DEB79B
:1002D0008E010F5F1F4F80911D0290911E0260E002
:1002E00070E0A8010E941E06FC01808180931C0220
:1002F00084E690E00E94F003EECF0F931F93DF930C
:10030000CF9300D0CDB7DEB70E94670081E060E0F8
:100310000E94B00080E00E94F1008E010F5F1F4F2D
:10032000F8940E9475009A838983789480911D02C5
:1003300090911E02B8010E94040684E690E00E949B
:10034000F003EECF0E945107F89487E083BF81E06D
:1003500087BF84E682BF789480E090E00E94E1024B
:1003600090931E0280931D028DE791E060E070E0A3
:100370004EE952E020E00E94460581E691E060E00F
:1003800070E04EE153E021E00E94460584E291E0F6
:1003900060E070E04EE953E022E00E9446050E94D2
:1003A000D10680E090E00895FA0180839293129242
:1003B000129212921292129212921292129212921D
:1003C000129212921292129212921292129212920D
:1003D00012921292129212921292129212926293AC
:1003E000729312921292129212921292129212928C
:1003F00080E882933197CF01089508950895089574
:100400000895089508950895089508958091A0038A
:10041000813009F0089580913D048F3FD9F38F5FBB
:1004200080933D0408958091A003813009F00895E0
:10043000F89480919F038F3F19F08F5F80939F0303
:10044000789408958CEF90E00895FF920F931F9396
:10045000CF93DF93EC018B01F42E3981E32FF0E091
:10046000E55EFE4F2081422F50E0FA01ED5EFE4F27
:100470007081DC01A40FB51F16969C911697E92F89
:10048000F0E0E55EFE4F8081E82FF0E0ED5EFE4F8C
:100490006081220F220F220F280F862F809589233B
:1004A00016968C93882321F4872F809538233983DF
:1004B000E22FF0E0EE0FFF1FED53FA4F0190F081B5
:1004C000E02D1386128617821682118700878F2DE2
:1004D0008095948589238487882359F480913704F3
:1004E000872B80933704FA01E85CFB4F8081682BEF
:1004F0006083822FDF91CF911F910F91FF9008951C
:10050000CF93DF93EC01A0913E04B0913F04179686
:100510009C938E9316971F968C911F97482F50E0AF
:1005200050963C915097FA01E85CFB4F832F8095E1
:100530009081892380838823A9F451962C91922F4E
:10054000909580913704892380933704FE01E40F4E
:10055000F51F8681832B86838981822B8983DF9196
:10056000CF91089551962C91F1CFCF93DF93EC0169
:10057000A0913E04B0913F041F968C911F97FE01FD
:10058000E80FF11D50968C915097809596818923A4
:100590008683882339F451969C915197909589814F
:1005A000892389831C961C921C9717961C921E9275
:1005B0001697DF91CF910895FC0111821682178260
:1005C00008959C0180913D048823D9F4F894E0912A
:1005D0003A04F0913B04309731F0848195819093F7
:1005E0003B0480933A047894309749F081E080830B
:1005F0001382128235832483118216821782CF01DF
:100600000895E0E0F0E0CF0108959C0180913D0461
:100610008823D9F4F894E0913A04F0913B043097A0
:1006200031F08481958190933B0480933A047894CF
:10063000309749F083E080833383228315821482CC
:10064000118216821782CF010895E0E0F0E0CF0119
:1006500008951F93CF93DF93182FF894C09131041E
:10066000D0913204209709F456C08A819B819093DF
:100670003204809331047894798368831D871C86C3
:100680001B861A86E12FE695E695E695EF87F0E062
:10069000ED5EFE4F8081898BE12FE770EE87F0E001
:1006A000ED5EFE4F8081888B1F821E821986188620
:1006B000CE010E940502CE010E94FD01F894E12FB7
:1006C000F0E0EE0FFF1FED53FA4FD183C083E091AE
:1006D000A703F091A803FB83EA831D821C82309755
:1006E00011F0D583C483D093A803C093A70380914E
:1006F00037049989892B80933704EF85F0E0E85C13
:10070000FB4F80819889892B8083789480E0DF91EA
:10071000CF911F910895789486E4DF91CF911F9136
:100720000895F8948091A1039091A203A091A3034E
:10073000B091A4030196A11DB11D8093A1039093D4
:10074000A203A093A303B093A40378940E9404028D
:10075000E8CFF89480913D04882309F03FC0809150
:100760009F038823D9F5E0913704F0E0E55EFE4F62
:100770008081E82FF0E0E85CFB4FE081F0E0E55E8F
:10078000FE4F982F990F990F990F8081980F909392
:10079000A5038091A603981709F1E92FF0E0EE0F69
:1007A000FF1FED53FA4F808191819093360480931F
:1007B00035048091290490912A04A0912B04B091D2
:1007C0002C040196A11DB11D8093290490932A0445
:1007D000A0932B04B0932C040E94010878940895F0
:1007E0009C01009721F1F894A0913E04B0913F0440
:1007F0001F96EC911F97F0E0E85CFB4F50968C91B0
:1008000050978095908189238083882349F451965D
:100810009C91519790958091370489238093370458
:100820001B963C932E931A9778940E94A9030895DF
:100830008F929F92AF92BF92CF92DF92EF92FF92F0
:100840000F931F93CF93DF93882E162F942E882318
:10085000C9F01C3300F58BE3891590F093E0283E36
:100860003907D8F083E5DF91CF911F910F91FF9069
:10087000EF90DF90CF90BF90AF909F908F900895B2
:1008800082E5F1CF662329F7442329F721153105A5
:1008900029F784E5E8CF81E5E6CFB90180E090E073
:1008A00024E630E040E050E00E94FC086C507E4FAF
:1008B0008F4F9F4F28EE33E040E050E00E94270921
:1008C00059016A01612F70E080E090E02CE330E094
:1008D00040E050E00E94FC087B018C01E90CF11C17
:1008E000011D111D682D70E080E090E020E13EE0E8
:1008F00040E050E00E94FC08E60EF71E081F191F9A
:10090000C801B70124E630E040E050E00E94FC0856
:10091000A60EB71EC81ED91E760100271127E701B3
:100920008FEF9FEFA0E0B0E0A822B922CA22DB221D
:10093000C5010E94F003EF2851F080E090E80E948A
:10094000F00380E090E80E94F0032197B1F780E087
:100950008ACFDF92EF92FF920F931F938091C2058F
:10096000882341F488EC90E00E94F0038091C20556
:100970008823C1F360912D0470912E0480912F047F
:100980009091300424E630E040E050E00E942709D6
:10099000C901DA017C018D0144E6D42E10C0A80102
:1009A00097010E9427098D2D821B87FD44C08093EB
:1009B00033040E94000284E690E00E94F003F89461
:1009C0008091A1039091A203A091A303B091A403ED
:1009D0008093DD059093DE05A093DF05B093E005DD
:1009E0006091A1037091A2038091A3039091A4034D
:1009F0001092A1031092A2031092A3031092A403D9
:100A00007894E114F1040105110549F610923304BC
:100A100060912D0470912E0480912F0490913004E8
:100A200024E630E040E050E00E942709C901DA01E5
:100A30007C018D01BECF10923304BBCF82E090E0E9
:100A40000E94F003F8941092A1031092A203109256
:100A5000A3031092A403789484E690E00E94F0032C
:100A6000F8948091A1039091A203A091A303B09167
:100A7000A40380932D0490932E04A0932F04B0938D
:100A8000300481E08093C20578940895AF92BF92BC
:100A9000CF92DF92EF92FF920F931F93CF93DF934A
:100AA000FC01122FF894C22FD0E0CC0FDD1FCD53E4
:100AB000DA4F88819981892B71F0789418E2812F1F
:100AC000DF91CF911F910F91FF90EF90DF90CF902A
:100AD000BF90AF90089581E090E0998388837894E7
:100AE000CF0120E030E00E94D401BC01812F40E022
:100AF00050E020E030E0EE24FF248701CC24DD2408
:100B0000AA24BB240E942903182F882371F4F89487
:100B1000809134048F5F8093340478948091A00393
:100B2000813069F60E94A903CACFF894198218820D
:100B30007894C5CFFC01F8948181882379F482816F
:100B400093812FEF8F3F920731F001969383828339
:100B5000789480E00895789482E30895CF0160E06E
:100B600070E041E00E94250278940E94A90380E091
:100B700008950F931F93CF93DF93EC018A01809127
:100B80003D04882381F4F8948A819B81009799F031
:100B900001979B838A837894FA011082DF91CF9129
:100BA0001F910F91089582E0FA018083DF91CF9128
:100BB0001F910F910895E0913E04F0913F048485C8
:100BC0008160848773876287CE010E948002789457
:100BD0000E94A903F894E0913E04F0913F048485BB
:100BE00080FD0AC0178216827894F8011082DF9186
:100BF000CF911F910F910895CE010E94B502789474
:100C00008AE0F8018083CACFFC01F89481818823AF
:100C100039F484819581892B61F0789484E1089579
:100C2000CF0142E00E94250278940E94A90380E04F
:100C3000089575836483789480E00895EF92FF921D
:100C40000F931F93CF93DF938C017A0180913D0422
:100C50008823A1F5F894F801C481D581209769F023
:100C6000158214827894FA011082CE01DF91CF911F
:100C70001F910F91FF90EF900895E0913E04F09145
:100C80003F0484858260848773876287C8010E94DD
:100C9000800278940E94A903F894E0913E04F091B8
:100CA0003F04C085D185209779F01186108614867F
:100CB000178216827894F7011082D7CF82E0FA016A
:100CC0008083C0E0D0E0D1CFC8010E94B502789403
:100CD0008AE0F7018083C9CF8091A003813009F0B9
:100CE0000895F89480919F03882359F08150809350
:100CF0009F03882321F480913D04882321F0789478
:100D000008957894089578940E94A90308950E9404
:100D100001028091A003813009F00895A091A703FA
:100D2000B091A8031D968C911D978C30B1F3209142
:100D3000370441E050E01AC051968C915197282B0E
:100D40001F96EC911F97F0E0E85CFB4F8081509676
:100D50009C915097892B808312960D90BC91A02D69
:100D600078941D968C911D978C30C1F0F8941A964A
:100D70008D919C911B97009779F301971B969C93FB
:100D80008E931A97892B41F71C968C911C9783FFA1
:100D9000D3CF1B965C934E931A97DECF20933704E4
:100DA00008958091A00381110895E0913704F0E047
:100DB000E55EFE4FA081EA2FF0E0E85CFB4FE081AA
:100DC000F0E0E55EFE4FAA0FAA0FAA0F8081A80FE0
:100DD000A093A503A093A603B0E0AA0FBB1FAD5339
:100DE000BA4F8D919C9190933604809335049093E3
:100DF0003F0480933E040E94CD0708958091A00394
:100E0000813009F00895F89480913D04882339F0E9
:100E1000815080933D04882311F078940895809147
:100E20009F038823D1F7E0913704F0E0E55EFE4FA1
:100E3000808180933C04E82FF0E0E85CFB4FE08188
:100E4000F0E0E55EFE4F982F990F990F990F808182
:100E5000980F9093A5038091A6039817F1F2E92FBC
:100E6000F0E0EE0FFF1FED53FA4F808191819093D8
:100E70003604809335048091290490912A04A0912E
:100E80002B04B0912C040196A11DB11D809329045F
:100E900090932A04A0932B04B0932C040E9464081E
:100EA000BCCF0E94020210923D0410929F03109248
:100EB00034041092A0031092290410922A04109274
:100EC0002B0410922C041092A1031092A2031092F2
:100ED000A3031092A40310923704109238041092C6
:100EE00039041092A6031092A503109236041092B2
:100EF000350410923F0410923E041092A803109201
:100F0000A703E3ECF5E01192119225E0ED3DF20725
:100F1000D1F78AEE94E0FC0170979183808342962A
:100F200025E0823C9207B9F71092B3051092B20502
:100F300088ED94E090933204809331041092C004C1
:100F400088EC94E09093C5048093C4041092C80484
:100F500008969093CD048093CC0440971092D004CF
:100F60001092D5041092D40490933B0480933A04D9
:100F700081E993E060E070E04FEB54E02CE00E94E8
:100F8000460589EA94E060E070E048E254E02BE036
:100F90000E9446050E94030208950E94FF010091ED
:100FA000A00303950093A003E0913504F09136046B
:100FB000C191CDBFD191DEBF0F910FBF0F910BBF7C
:100FC000FF91EF91DF91CF91BF91AF919F918F9161
:100FD0007F916F915F914F913F912F911F910F9151
:100FE000FF90EF90DF90CF90BF90AF909F908F9049
:100FF0007F906F905F904F903F902F901F900F9039
:1010000008950F921F922F923F924F925F926F928C
:101010007F928F929F92AF92BF92CF92DF92EF9288
:10102000FF920F931F932F933F934F935F936F9371
:101030007F938F939F93AF93BF93CF93DF93EF9360
:10104000FF930BB70F930FB70F93E0913E04F0910E
:101050003F04CDB7C193DEB7D1930E94FF01009149
:10106000A5030093A603E0913504F0913604E093C4
:101070003E04F0933F04C191CDBFD191DEBF0F91EB
:101080000FBF0F910BBFFF91EF91DF91CF91BF91F8
:10109000AF919F918F917F916F915F914F913F9110
:1010A0002F911F910F91FF90EF90DF90CF90BF9005
:1010B000AF909F908F907F906F905F904F903F90F8
:1010C0002F901F900F9008950E94FF010091A5039B
:1010D0000093A603E0913504F0913604E0933E04BA
:1010E000F0933F04C191CDBFD191DEBF0F910FBFEF
:1010F0000F910BBFFF91EF91DF91CF91BF91AF9116
:101100009F918F917F916F915F914F913F912F911F
:101110001F910F91FF90EF90DF90CF90BF90AF9015
:101120009F908F907F906F905F904F903F902F9007
:101130001F900F9008950F921F922F923F924F92FF
:101140005F926F927F928F929F92AF92BF92CF9257
:10115000DF92EF92FF920F931F932F933F934F9342
:101160005F936F937F938F939F93AF93BF93CF932F
:10117000DF93EF93FF930BB70F930FB700680F93B5
:1011800000913D04039500933D04013041F4CDB737
:10119000DEB7E0913E04F0913F04C193D19304E6A1
:1011A00002BF78940E94870600000E94FE060F91FD
:1011B0000FBF0F910BBFFF91EF91DF91CF91BF91C7
:1011C000AF919F918F917F916F915F914F913F91DF
:1011D0002F911F910F91FF90EF90DF90CF90BF90D4
:1011E000AF909F908F907F906F905F904F903F90C7
:1011F0002F901F900F900895629FD001739FF00170
:10120000829FE00DF11D649FE00DF11D929FF00D96
:10121000839FF00D749FF00D659FF00D9927729FCD
:10122000B00DE11DF91F639FB00DE11DF91FBD0158
:10123000CF0111240895991B79E004C0991F9617D6
:1012400008F0961B881F7A95C9F780950895A1E24A
:101250001A2EAA1BBB1BFD010DC0AA1FBB1FEE1F30
:10126000FF1FA217B307E407F50720F0A21BB30B7B
:10127000E40BF50B661F771F881F991F1A9469F7F7
:1012800060957095809590959B01AC01BD01CF0153
:061290000895F894FFCF61
:101296003F065B4F666D7D277F6F777C395E797180
:1012A600804008010204081020408000000100026E
:1012B6000001000300010002000100040001000219
:1012C6000001000300010002000100050001000208
:1012D60000010003000100020001000400010002F9
:1012E60000010003000100020001000600010002E7
:1012F60000010003000100020001000400010002D9
:1013060000010003000100020001000500010002C7
:1013160000010003000100020001000400010002B8
:1013260000010003000100020001000700010002A5
:101336000001000300010002000100040001000298
:101346000001000300010002000100050001000287
:101356000001000300010002000100040001000278
:101366000001000300010002000100060001000266
:101376000001000300010002000100040001000258
:101386000001000300010002000100050001000247
:101396000001000300010002000100040001000238
:0C13A60000010003000100020001000033
:00000001FF
